:020000040000FA
:100000000C94EE020C9416030C9416030C94160335
:100010000C9416030C9416030C9416030C941603FC
:100020000C9416030C9416030C9416030C941603EC
:100030000C9416030C9416030C9416030C941603DC
:100040000C940C130C9416030C94DA120C94B41246
:100050000C9416030C9416030C9416030C941603BC
:100060000C9456130C94160300000000003E5B4FE6
:100070005B3E3E6B4F6B3E1C3E7C3E1C183C7E3C08
:10008000181C577D571C1C5E7F5E1C00183C180016
:10009000FFE7C3E7FF0018241800FFE7DBE7FF30A6
:1000A000483A060E2629792926407F050507407F14
:1000B00005253F5A3CE73C5A7F3E1C1C08081C1C87
:1000C0003E7F14227F22145F5F005F5F06097F017D
:1000D0007F006689956A606060606094A2FFA29468
:1000E00008047E040810207E201008082A1C080836
:1000F0001C2A08081E101010100C1E0C1E0C303884
:100100003E3830060E3E0E06000000000000005F84
:1001100000000007000700147F147F14242A7F2AA0
:100120001223130864623649562050000807030062
:10013000001C2241000041221C002A1C7F1C2A08AE
:10014000083E080800807030000808080808000011
:1001500060600020100804023E5149453E00427F85
:10016000400072494949462141494D331814127FD4
:100170001027454545393C4A494931412111090774
:100180003649494936464949291E000014000000F5
:1001900040340000000814224114141414140041C7
:1001A00022140802015909063E415D594E7C121184
:1001B000127C7F494949363E414141227F414141BC
:1001C0003E7F494949417F090909013E4141517337
:1001D0007F0808087F00417F41002040413F017FA8
:1001E000081422417F404040407F021C027F7F0470
:1001F00008107F3E4141413E7F090909063E4151B9
:10020000215E7F09192946264949493203017F01A8
:10021000033F4040403F1F2040201F3F4038403FA9
:10022000631408146303047804036159494D4300BF
:100230007F4141410204081020004141417F0402F6
:10024000010204404040404000030708002054548D
:1002500078407F284444383844444428384444286B
:100260007F385454541800087E090218A4A49C78BE
:100270007F0804047800447D40002040403D007F1A
:100280001028440000417F40007C047804787C08FA
:100290000404783844444438FC18242418182424CE
:1002A00018FC7C08040408485454542404043F44B3
:1002B000243C4040207C1C2040201C3C4030403CE2
:1002C00044281028444C9090907C4464544C440042
:1002D00008364100000077000000413608000201A6
:1002E0000204023C2623263C1EA1A161123A404092
:1002F000207A38545455592155557941225454780F
:1003000042215554784020545579400C1E527212A7
:100310003955555559395454545939555454580030
:1003200000457C410002457D420001457C407D1234
:1003300011127DF0282528F07C5455450020545496
:100340007C547C0A097F4932494949323A44444441
:100350003A324A4848303A4141217A3A424020787C
:10036000009DA0A07D3D4242423D3D4040403D3C7D
:1003700024FF2424487E4943662B2FFC2F2BFF09A2
:1003800029F620C0887E0903205454794100004496
:100390007D413048484A32384040227A007A0A0A81
:1003A000727D0D19317D2629292F282629292926F4
:1003B00030484D4020380808080808080808382F39
:1003C00010C8ACBA2F102834FA00007B00000814C3
:1003D0002A142222142A14085500550055AA55AA99
:1003E00055AAFF55FF55FF000000FF00101010FF39
:1003F00000141414FF001010FF00FF1010F010F094
:10040000141414FC001414F700FF0000FF00FF1484
:1004100014F404FC141417101F10101F101F1414D0
:10042000141F00101010F0000000001F101010101A
:100430001F10101010F010000000FF10101010100E
:1004400010101010FF10000000FF140000FF00FF4C
:1004500000001F10170000FC04F4141417101714E8
:1004600014F404F40000FF00F7141414141414140A
:10047000F700F7141414171410101F101F1414147D
:10048000F4141010F010F000001F101F0000001FE7
:1004900014000000FC140000F010F01010FF10FF1A
:1004A000141414FF141010101F00000000F010FFAF
:1004B000FFFFFFFFF0F0F0F0F0FFFFFF0000000093
:1004C00000FFFF0F0F0F0F0F3844443844FC4A4A17
:1004D0004A347E02020606027E027E0263554941CC
:1004E000633844443C04407E201E2006027E020203
:1004F00099A5E7A5991C2A492A1C4C7201724C3017
:100500004A4D4D303048784830BC625A463D3E49ED
:100510004949007E0101017E2A2A2A2A2A44445F91
:10052000444440514A444040444A51400000FF0185
:1005300003E080FF000008086B6B08361236243693
:10054000060F090F060000181800000010100030F8
:1005500040FF0101001F01011E00191D1712003C80
:100560003C3C3C0000000000000103070F1F3F7FE0
:100570000080C0E0F0F8FCFE00000000240027002E
:100580002A0000000000250028002B0000000000C9
:1005900023002600290004040404040404040202C5
:1005A00002020202030303030303010204081020F2
:1005B00040800102040810200102040810200000FD
:1005C0000008000201000003040700000000000012
:1005D00000002200FF2100007114231811241FBE07
:1005E000CFEFD8E0DEBFCDBF23E0A2E0B2E001C094
:1005F0001D92A93CB207E1F712E0A0E0B1E0E8EB00
:10060000FAE302C005900D92A230B107D9F712E0CB
:10061000CDEED2E004C02197FE010E94A118CC3E8D
:10062000D107C9F70E94E6140C944F1D0C940000EA
:10063000AF92BF92CF92DF92EF92FF920F931F93F0
:10064000CF93DF936C017B018B01040F151FEB012E
:100650005E01AE18BF08C017D10759F06991D601E5
:10066000ED91FC910190F081E02DC6010995892B57
:1006700079F7C501DF91CF911F910F91FF90EF9016
:10068000DF90CF90BF90AF900895FC01538D448DC3
:10069000252F30E0842F90E0821B930B541710F02D
:1006A000CF96089501970895FC01918D828D98173A
:1006B00061F0A28DAE0FBF2FB11D5D968C91928D12
:1006C0009F5F9F73928F90E008958FEF9FEF089543
:1006D0002FB7F8948091D6029091D702A091D802BA
:1006E000B091D9022FBF8093E2029093E302A093CE
:1006F000E402B093E5028AED92E00E94540397FF72
:1007000026C02FB7F8948091D6029091D702A0917D
:10071000D802B091D9022FBF4091E2025091E3027A
:100720006091E4027091E502841B950BA60BB70B58
:100730004091DE025091DF026091E0027091E1028F
:1007400084179507A607B707B0F28FEF9FEF0895BC
:10075000FC01918D828D981731F0828DE80FF11D8B
:10076000858D90E008958FEF9FEF0895FC01918DA6
:10077000228D892F90E0805C9F4F821B91098F739F
:10078000992708958AED92E00E94B60321E0892B13
:1007900009F420E0822F089580E090E0892B29F071
:1007A0000E94C20381110C9400000895FC01A48DE5
:1007B000A80FB92FB11DA35ABF4F2C91848D90E083
:1007C00001968F739927848FA689B7892C93A08966
:1007D000B1898C91837080648C93938D848D9813F0
:1007E00006C00288F389E02D80818F7D8083089583
:1007F000EF92FF920F931F93CF93DF93EC0181E071
:10080000888F9B8D8C8D98131AC0E889F989808117
:1008100085FF15C09FB7F894EE89FF896083E8894A
:10082000F98980818370806480839FBF81E090E03C
:10083000DF91CF911F910F91FF90EF900895F62EC9
:100840000B8D10E00F5F1F4F0F731127E02E8C8D63
:100850008E110CC00FB607FCFACFE889F9898081A8
:1008600085FFF5CFCE010E94D603F1CFEB8DEC0FC3
:10087000FD2FF11DE35AFF4FF0829FB7F8940B8FC5
:10088000EA89FB8980818062CFCFCF93DF93EC012F
:10089000888D8823B9F0AA89BB89E889F9898C9168
:1008A00085FD03C0808186FD0DC00FB607FCF7CF24
:1008B0008C9185FFF2CF808185FFEDCFCE010E9424
:1008C000D603E9CFDF91CF910895833081F028F4EA
:1008D000813099F08230A9F008958730A9F08830EE
:1008E000C9F08430B1F4809180008F7D03C0809185
:1008F00080008F7780938000089584B58F7784BDC2
:10090000089584B58F7DFBCF8091B0008F77809361
:10091000B00008958091B0008F7DF9CFCF93DF9321
:10092000282F30E0F901E254FA4F8491F901E6559D
:10093000FA4FD491F901EA56FA4FC491CC23A1F0B1
:1009400081110E946504EC2FF0E0EE0FFF1FE457C9
:10095000FA4FA591B491EC91ED2381E090E009F478
:1009600080E0DF91CF91089580E090E0FACF1F936F
:10097000CF93DF93282F30E0F901E254FA4F8491AE
:10098000F901E655FA4FD491F901EA56FA4FC491AC
:10099000CC23A9F0162F81110E946504EC2FF0E002
:1009A000EE0FFF1FEE57FA4FA591B4918FB7F89451
:1009B000EC91111108C0D095DE23DC938FBFDF913D
:1009C000CF911F910895DE2BF8CFCF93DF9390E066
:1009D000FC01E655FA4F24918A569A4FFC01849106
:1009E0008823C9F090E0880F991FFC01E858FA4F5E
:1009F000A591B491FC01EE57FA4FC591D4916111C4
:100A00000DC09FB7F8948C91209582238C93888198
:100A1000282328839FBFDF91CF910895623051F43E
:100A20009FB7F8943C91822F809583238C93E88123
:100A30002E2BEFCF8FB7F894EC912E2B2C938FBFEA
:100A4000EACF3FB7F8948091940290919502A091DB
:100A50009602B091970226B5A89B05C02F3F19F0CA
:100A60000196A11DB11D3FBFBA2FA92F982F88272E
:100A7000BC01CD01620F711D811D911D42E0660F09
:100A8000771F881F991F4A95D1F708958F929F92DB
:100A9000AF92BF92CF92DF92EF92FF924B015C0137
:100AA0000E9421056B017C010E9421056C197D09C2
:100AB0008E099F09683E734081059105A8F321E0E6
:100AC000821A9108A108B10888EEC80E83E0D81EEA
:100AD000E11CF11C81149104A104B10429F7FF90D9
:100AE000EF90DF90CF90BF90AF909F908F90089540
:100AF000EF92FF920F931F93CF93DF93EC01EC8063
:100B0000FD806E157F050CF070C057FF04C0240FE8
:100B1000351F50E040E08E819F81FA01E20FF31F04
:100B20008E179F071CF49C01241B350B121613060D
:100B30000CF05BC0922F842F8695869586958E9DAE
:100B4000D0018F9DB00D11246A0F7B1FAF8DB8A10E
:100B5000A60FB71F477049F188E0841B482F682F04
:100B600070E0FB01E059FA4FE491281708F063C0E8
:100B7000621B71092FEF30E002C0359527956A9509
:100B8000E2F7E2230130110539F0B0F1023011052E
:100B900061F58C91E82702C08C91E82BEC939417B7
:100BA00020F12C813D81A20FB31FE92FE41BE83017
:100BB00078F00230110521F58E2F9C9190959C9331
:100BC0002C813D81A20FB31F88508830B0F7E770A9
:100BD000EE2359F0F0E0E859FA4FE49101301105A5
:100BE000F9F010F10230110519F1DF91CF911F9149
:100BF0000F91FF90EF900895E0958C91E823CECF70
:100C000081E00115110509F480E081959E2F8C93F8
:100C10002C813D81A20FB31F98509830C0F7D7CFD9
:100C20008C91E82BEC93E1CFE0958C91E823FACFFF
:100C30008C91E827F7CF0130110509F4ADCFE0F230
:100C40000230110509F4A5CFAE0DBF1DAECF0F9335
:100C50001F93CF93DF9377FF04C0260F371F70E0F9
:100C600060E0DC011496CD91DC91FB01E20FF31FF3
:100C7000CE17DF071CF49E01261B370B1216130636
:100C80004CF5FA0157FD3796A3E0F595E795AA953F
:100C9000E1F7EC9FD001ED9FB00DFC9FB00D11244A
:100CA0006A0F7B1FDC015F96ED91FC91E60FF71F49
:100CB0004770552781E090E001C0880F4A95EAF718
:100CC000482F0130110559F0A8F02E0F3F1F0230B8
:100CD0001105E1F0DF91CF911F910F9108952E0F33
:100CE0003F1FE217F307B1F38191DF011197842BC6
:100CF0008C93F7CF80952E0F3F1FE217F30751F328
:100D00009191DF01119798239C93F7CFE217F30796
:100D100009F38191DF01119784278C93F7CF0F930B
:100D20001F93FA01DC0156964C9156974230E9F038
:100D30004330A1F1413061F514964D915C91DA0197
:100D4000AE1BBF0BFD01E21BF30B77FD0BC0DC01FB
:100D500016964D915C916417750724F4AB01BF01A1
:100D60000E9427061F910F91089514964D915C9152
:100D7000DA01A61BB70BBD0161507109DC011696A3
:100D80004D915C91DA01AE1BBF0BFD01E21BF30B31
:100D900077FDE8CFAF010E947805E4CF16964D911C
:100DA0005C91DA01A61BB70BBD0161507109CDCF73
:100DB0000F931F93FA01DC0156964C9156974230DF
:100DC000A9F0433091F1413019F514964D915C91A1
:100DD000DA01AE1BBF0BFD013197F7FD04C0AB017B
:100DE000BF010E9478051F910F91089514964D91AF
:100DF0005C91DA01A61BB70BBD01DC0116964D9183
:100E00005C91DA01AE1BBF0BFD013197621B730BC6
:100E1000F7FDE9CFDC0116964D915C91E417F507DB
:100E200014F7AF010E942706DECF16964D915C9114
:100E3000DA01A61BB70BBD01621B730BCECFFC0101
:100E400077FD64C080859185681779070CF05EC0D6
:100E500057FD5CC082859385481759070CF056C032
:100E600086898230B1F0833029F1813041F4848168
:100E70009581841B950BAB01BC0161507109213038
:100E8000310509F108F443C02230310509F463C08B
:100E9000089584819581DC01A61BB70BBD016150CB
:100EA000710986819781DC01A41BB50BAD0141500E
:100EB0005109E5CF86819781861B970BBA01AC015A
:100EC00041505109DCCFCA0157FD0796A3E0959523
:100ED0008795AA95E1F7A481B5818A9F90018B9FA0
:100EE000300D9A9F300D1124620F731F078CF0A1F3
:100EF000E02DE60FF71F4770552721E030E001C0D5
:100F0000220F4A95EAF78081822B80830895CA01D7
:100F100057FD079633E0959587953A95E1F7A481BB
:100F2000B5818A9F90018B9F300D9A9F300D1124BF
:100F3000620F731F078CF0A1E02DE60FF71F4770BB
:100F4000552781E090E001C0880F4A95EAF7809527
:100F500090818923DACFCA0157FD079623E0959542
:100F600087952A95E1F7A481B5818A9F90018B9F8F
:100F7000300D9A9F300D1124620F731F078CF0A162
:100F8000E02DE60FF71F4770552721E030E001C044
:100F9000220F4A95EAF780818227B7CF08958EBD48
:100FA00000000DB407FEFDCF8EB508958CBD9DBD2C
:100FB00008950895FC016370668B84819581268174
:100FC0003781613039F0633029F09187808733872A
:100FD00022870895318720879387828708952F92EB
:100FE0003F924F925F926F927F928F929F92AF92B9
:100FF000BF92CF92DF92EF92FF920F931F93CF9306
:10100000DF93CDB7DEB76A970FB6F894DEBF0FBE99
:10101000CDBF9A8F898F7A8369834A01D22E188730
:101020000F833701BC2CDC0159962D913C915A97C6
:101030002115310509F015C118968D919C911997CC
:10104000681779070CF0D7C11A968D919C914817B3
:1010500059070CF0D0C14C2C512CB6E0CB9E600D42
:10106000711D11247C876B87161617060CF0C3C1FF
:10107000EA2DF0E0FA87E98793E0EE0FFF1F9A95DB
:10108000E1F7F88BEF87CF01840F951F181619062B
:101090000CF0B1C1A98DBA8D58968C91811104C004
:1010A000BFEABD1508F4D394A98DBA8DED91FC91DA
:1010B00011970284F385E02DCD010995B5E0DB9E03
:1010C000C0011124E981FA81FC83EB83312C212CAE
:1010D0009C0128593F4F388F2F8B4A2D50E05E8B53
:1010E0004D8BEF89F88DE20DF31D44919E828D8228
:1010F000D12CC12C69817A81620D731D7A8B698B29
:10110000842F90E09C8B8B8BE98DFA8DA081B1812F
:1011100040FF82C0F1E0BF126FC0AF126DC01C96DD
:10112000ED91FC912F813885A4014C0D5D1D6989DD
:101130007A89898D9A8D0995EB89FC89F595E795D2
:101140004E2F5FEFC51AD50A6D817E818D899E89EC
:10115000680F791F7E836D8398E0C916D10481F6EC
:10116000AFEF2A1A3A0AEB81FC81E40DF51DFC83EE
:10117000EB83F5E02F16310409F0B3CF2F813885CA
:1011800026153705B9F0A98DBA8DED91FC91B1E026
:10119000BB1257C0AB1255C069817A816B5F7F4F1C
:1011A0000088F189E02D830128E030E0A401898DD9
:1011B0009A8D0995A98DBA8DED91FC9111970688AC
:1011C000F789E02DCD016A960FB6F894DEBF0FBE09
:1011D000CDBFDF91CF911F910F91FF90EF90DF90E6
:1011E000CF90BF90AF909F908F907F906F905F90C7
:1011F0004F903F902F9009941E96ED91FC91EF80B7
:10120000F88409851A8592014D815E816B817C810C
:10121000898D9A8D099590CF2F81388526153705B0
:1012200009F48ACF31E0B31207C0A31205C01C969F
:10123000ED91FC91930178CF1E96ED91FC91730195
:10124000E0CF6B857C85641975090684F785E02DF0
:1012500073010F8518899201A401898D9A8D0995D2
:10126000A9CFF90134969491329745915491D91AA6
:10127000B7E0DB9E400D511D1124F90125913491F9
:101280003C8B2B8BFA0125903490FA0132967490A6
:1012900031963491398B329664903196449041E086
:1012A0004C1518F04A1508F07FC0662D062C000C6E
:1012B000770B7C836B83842D042C000C990B9E830D
:1012C0008D83A98DBA8DED91FC9111970284F385E0
:1012D000E02DCD010995512CD12CC12CEA2DF0E047
:1012E000FA87E9872B2D30E03C872B87A401440D3A
:1012F000511D47FC5A95588F4F8B69817A81660D35
:10130000711D67FC7A957E876D877989C71608F00D
:1013100051CF2C2D30E04D815E81420F531FA985A6
:10132000BA854A9FC0014B9F900D5A9F900D112482
:10133000FC01E80DF91DF88BEF87852D612C4F8995
:10134000588D420F531F5E8B4D8B671408F050C0B1
:1013500044244394480E877041F4C1010196EB89FF
:10136000FC89E20DF31DD4901C01D7FE19C0A98D94
:10137000BA8DED91FC91662D70E0B1E0BB1219C001
:10138000AB1217C02D853E85620F731F0484F5854F
:10139000E02D2F8138854D895E89898D9A8D09953B
:1013A000DD0C6394842DD1CF1E821D821C821B8292
:1013B00088CF4B815C81640F751FAB85BC856A9FAC
:1013C000C0016B9F900D7A9F900D112469817A81E5
:1013D000680F791F0684F785E02DEF80F884098572
:1013E0001A859D014F855889898D9A8D0995D8CF89
:1013F000570CC3948ACF6A960FB6F894DEBF0FBE1F
:10140000CDBFDF91CF911F910F91FF90EF90DF90B3
:10141000CF90BF90AF909F908F907F906F905F9094
:101420004F903F902F9008958F929F92AF92CF92BE
:10143000EF92FF920F931F93CF93DF93EC01262F30
:10144000898D9A8D009709F051C06A30D1F41D86BC
:101450001C868D8948E0849F900111248E859F858C
:10146000820F931F9F878E8781E090E0DF91CF915D
:101470001F910F91FF90EF90CF90AF909F908F9022
:1014800008956D3089F3CC88AD888F898823C1F0A9
:101490008C859D8536E0C39E800D911D1124488565
:1014A00059854817590764F44E855F851D861C864B
:1014B00038E0A39EC0011124840F951F9F878E875B
:1014C000EA88FB88088919894E855F856C857D854A
:1014D000CE010E94EF072C898C859D8546E0249FD4
:1014E000800D911D11249D878C87BECF6A3069F4D1
:1014F0001D861C86FC013896E4912D898E859F857A
:10150000E29F800D911D1124ADCF6D3009F4ACCF59
:10151000FC0134963491631708F4A6CF3296E49117
:10152000E61708F4A1CFFC01329685909490462FDF
:10153000431B342F47E0349F800C911C1124F4018D
:10154000329634913196E4913323A9F1EE2399F147
:10155000CC88F4013596E491AD884F89442301F19C
:101560000E2E000CFF0BE30FF11DCE9EA001CF9EAF
:10157000500D11246C857D85460F571F6885798530
:10158000641775076CF44E855F851D861C86FC010B
:101590003896E491AE9E400D511D11245F874E8711
:1015A000EA88FB88088919894E855F856C857D8569
:1015B000CE010E94EF07F4013496E4912C898C85CA
:1015C0009D85E29F800D911D11248DCF6F927F929A
:1015D0008F929F92AF92BF92CF92DF92EF92FF9243
:1015E0000F931F93CF93DF93EC016B015A013901E5
:1015F0004801E881F9810284F385E02D0995E881AD
:10160000F9810288F389E02D87019301A501B601D4
:10161000CE010995A501480D591D41505109E88198
:10162000F9810288F389E02D9301B601CE01099575
:10163000E881F9810088F189E02D9401A501B601C6
:10164000CE010995C60CD71CB60161507109E8811D
:10165000F9810088F189E02D9401A501CE01099559
:10166000E881F9810688F789E02DCE01DF91CF91DD
:101670001F910F91FF90EF90DF90CF90BF90AF90B0
:101680009F908F907F906F9009946F927F928F922E
:101690009F92AF92BF92CF92DF92EF92FF920F9301
:1016A0001F93CF93DF935C01EB016A01490138017D
:1016B0008701DC01ED91FC916217730719F564163F
:1016C00075062CF0962D872D3A01C92ED82E96013D
:1016D000261937092F5F3F4F048CF58DE02DA301AC
:1016E000BE01C5010995DF91CF911F910F91FF9028
:1016F000EF90DF90CF90BF90AF909F908F907F90B2
:101700006F9008954615570591F42617370724F072
:10171000892D4B01C22FD82F9E01281939092F5F1F
:101720003F4F068CF78DE02DA601B401DACF02847D
:10173000F385E02D0995D501ED91FC910488F5899B
:10174000E02D83019401A601BE01C5010995D501D3
:10175000ED91FC910688F789E02DC501DF91CF91CD
:101760001F910F91FF90EF90DF90CF90BF90AF90BF
:101770009F908F907F906F900994EF92FF920F93BC
:101780001F93DC011A960D911C911B9718962D91B1
:101790003C911997ED91FC9100A0F1A1E02D7B0106
:1017A00050E040E070E060E009951F910F91FF90DC
:1017B000EF9008954F925F926F927F928F929F92D7
:1017C000AF92BF92CF92DF92EF92FF920F931F934F
:1017D000CF93DF936C012B015A0139014801DC01E1
:1017E000ED91FC910284F385E02D0995E201640CF2
:1017F000751CD601ED91FC91C615D7055CF40088E7
:10180000F189E02D87019401A501BE01C60109956A
:101810002196EFCF0688F789E02DC601DF91CF91A1
:101820001F910F91FF90EF90DF90CF90BF90AF90FE
:101830009F908F907F906F905F904F9009948F92C0
:101840009F92AF92BF92CF92DF92EF92FF920F934F
:101850001F93CF93DF93EC015B014A016901E8819B
:10186000F9810284F385E02D099595012C0D3D1D2C
:1018700021503109E881F9810488F589E02D78014A
:101880008401A401B501CE010995E881F98106889A
:10189000F789E02DCE01DF91CF911F910F91FF903D
:1018A000EF90DF90CF90BF90AF909F908F90099472
:1018B0008F929F92AF92BF92CF92DF92EF92FF9260
:1018C0000F931F93CF93DF93EC015B014A016901F2
:1018D0007801E881F9810284F385E02D0995C80C2F
:1018E000D91C860101501109E881F9810488F58924
:1018F000E02D9501A401B501CE010995E881F9819A
:101900000688F789E02DCE01DF91CF911F910F91CD
:10191000FF90EF90DF90CF90BF90AF909F908F900F
:1019200009940895EF92FF920F931F93DC01ED91BC
:10193000FC9100A0F1A1E02D09951F910F91FF905E
:10194000EF9008950F931F93DC01ED91FC91068CAD
:10195000F78DE02D09951F910F9108950F931F9317
:10196000DC01ED91FC91048CF58DE02D09951F9122
:101970000F910895DC01ED91FC910084F185E02D3B
:1019800009942F923F924F925F926F927F928F9223
:101990009F92AF92BF92CF92DF92EF92FF920F93FE
:1019A0001F93CF93DF9300D000D000D0CDB7DEB728
:1019B0003C016A013E832D83FC82EB825801A41A0C
:1019C000B50AB7FE03C0B194A194B1088D809E8082
:1019D000861A970A97FE03C09194819491088A14FD
:1019E0009B045CF0902F812F0D811E819D838E833F
:1019F0009C2D8D2D6B01692F782F0C151D055CF02A
:101A00009D818E817E836D83692F782F902F812F0A
:101A10008601C92ED82E1601201A310A2B012D81DC
:101A20003E81421A530A57FE03C051944194510813
:101A3000710137FE03C03FEFE31AF30AF594E79410
:101A40008D819E81861797075CF5A1E0B0E0BA838F
:101A5000A983C016D1064CF1D301ED91FC91048409
:101A6000F585E02D2B813C81A8016D817E818A1452
:101A70009B041CF04D815E81B801C3010995E418F7
:101A8000F508F7FE0AC02D813E8189819A81280FD1
:101A9000391F3E832D83E20CF31C0F5F1F4FD9CFFC
:101AA0002FEF3FEF3A832983D4CF26960FB6F894D1
:101AB000DEBF0FBECDBFDF91CF911F910F91FF9081
:101AC000EF90DF90CF90BF90AF909F908F907F90DE
:101AD0006F905F904F903F902F90089508951F93BF
:101AE000CF93DF93C1E0C0932802882399F1D0916E
:101AF000B8001091BA008091BC008A7B8093BC0032
:101B000060E082E10E94B70460E083E10E94B704D4
:101B100010926D02C0936F0210926E0261E082E13A
:101B20000E94B70461E083E10E94B7048091B9008C
:101B30008E7F8093B9008091B9008D7F8093B9002A
:101B400088E48093B80085E48093BC001093BA00C9
:101B5000D093B800DF91CF911F9108952091490251
:101B6000260F3327331F21323105ECF420916D020B
:101B7000FC0190E080E0243069F082E00895A091BB
:101B800049022191AC01475D5D4FA40FB52FB11DF6
:101B90002C930196861798F380914902680F609301
:101BA000490280E0089581E008958FEF9FEF089546
:101BB0008FEF9FEF08958091220290E0919581959B
:101BC00091090895CF92DF92EF92FF920F931F93A6
:101BD000CF93DF937C01CB018A012091D502222390
:101BE00089F0EB016B01C40ED51ECC15DD0569F043
:101BF0006991D701ED91FC910190F081E02DC70131
:101C00000995F3CF642F0E94AE0DC801DF91CF91EB
:101C10001F910F91FF90EF90DF90CF900895CF9399
:101C2000DF931F92CDB7DEB769832091D5022223BF
:101C3000F9F02091D202203258F021E030E0FC018E
:101C40003383228390E080E00F90DF91CF9108955D
:101C50008091D302E82FF0E0EE5FFD4F99819083F1
:101C60008F5F8093D3028093D20281E090E0ECCF2B
:101C700061E0CE0101960E94AE0DF7CFCF92DF92C8
:101C8000EF92FF920F931F93CF93DF93D091D202E5
:101C900081E0D13208F09CC0C091D4020E9421059D
:101CA0006B017C0180916D0281116CC082E0809398
:101CB0006D0281E080936F028FEF80936C0210922F
:101CC0009102D0939002A2E0B2E0E0E7F2E080E07F
:101CD000D8138DC01092920280919202CC0FC82B23
:101CE000C093920280916E02813009F084C01092FC
:101CF0006E020E9421056B017C018091920280930B
:101D0000BB008091240290912502A0912602B091FF
:101D10002702892B8A2B8B2BA1F00E942105009191
:101D200024021091250220912602309127026C197D
:101D30007D098E099F09061717072807390708F438
:101D400042C08091BC0083FDD8CF85EC8093BC005D
:101D50000E9421056B017C0180916D02823009F4A3
:101D60004CC080916C028F3F09F469C080916C0275
:101D7000803209F466C080916C02803309F463C03C
:101D800084E026C08091240290912502A091260231
:101D9000B0912702892B8A2B8B2B09F483CF0E94C9
:101DA00021050091240210912502209126023091F4
:101DB00027026C197D098E099F0906171707280746
:101DC000390708F06FCF809123020E946F0D85E0E4
:101DD0001092D3021092D2021092D502DF91CF91CD
:101DE0001F910F91FF90EF90DF90CF9008959D91FC
:101DF00091938F5F6DCF85EEA9CF80912402909152
:101E00002502A0912602B0912702892B8A2B8B2BC9
:101E100009F4A2CF0E94210500912402109125020D
:101E200020912602309127026C197D098E099F09A5
:101E3000061717072807390708F08ECFC4CF80E0B0
:101E4000C7CF82E0C5CF83E0C3CF1F93CF93DF938B
:101E5000EC018D8D9E8D009721F1162F29A131E087
:101E60003093D5022093D4021092D3021092D20262
:101E7000DC01ED91FC910190F081E02D60E009958D
:101E80008D8D9E8DDC01ED91FC910190F081E02D16
:101E9000612F09958D8D9E8DDF91CF911F910C94AF
:101EA0003E0EADA5BEA59C918BA9809589238C93F0
:101EB0008B8D9C8D892B31F0862FDF91CF911F91D7
:101EC0000C94CF0728E030E080E8A9A5BAA599A92D
:101ED000462F4823C1F04C91942B9C93ABA5BCA5F5
:101EE0009C914AA9942B9C93ABA5BCA54C919AA913
:101EF000909594239C9386952150310931F7DF9179
:101F0000CF911F9108954C9190959423E6CF1F9304
:101F1000CF93DF93EC01162F8D8D9E8D892BB1F120
:101F20002DA93EA94FA958AD60E074E284EF90E07E
:101F30000E947F1820513109410951095695479552
:101F4000379527952093B80066EA111167EACE010C
:101F50000E94250F8D8D9E8D892B41F129AD3AADC3
:101F60004BAD5CAD60E074E284EF90E00E947F18BE
:101F700020513109410951095695479537952795C3
:101F80002093B800DF91CF911F9108958B8D9C8D88
:101F9000892B21F08EAD9FAD0E94D607EFA5F8A941
:101FA00090818CA9809589238083CECFEFA5F8A955
:101FB00080819CA9892B8083E5CF90E080E0089503
:101FC000FB0101900020E9F73197AF01461B570B49
:101FD000DC01ED91FC910280F381E02D0994DF9208
:101FE000EF92FF920F931F93CF93DF93BC0185E88D
:101FF00093E00E94E00F69E571E085E893E00E94BC
:10200000E00F8091A2039091A303892B09F470C083
:102010002091BA033091BB034091BC035091BD03A2
:1020200060E074E284EF90E00E947F182051310953
:102030004109510956954795379527952093B80042
:102040008091A2039091A303009709F4E5C0209129
:10205000A60331E03093D5022093D4021092D3022C
:102060001092D202DC01ED91FC910190F081E02D03
:1020700060E0099502ED15E0A6E0FA2EC1E0D0E09F
:10208000EE24E3948091A2039091A303FA94FF209D
:1020900009F445C0C032D105D0F00E943E0E8091B7
:1020A000A2039091A3032091A603E092D50220936E
:1020B000D4021092D3021092D202DC01ED91FC9175
:1020C0000190F081E02D60E00995C1E0D0E08091C1
:1020D000A2039091A303F8016491DC01ED91FC91BE
:1020E0000190F081E02D099521960F5F1F4FCACF17
:1020F0008091A0039091A103892B31F08091C303BB
:102100009091C4030E94D607E091B403F091B50307
:1021100090818091B90380958923808391CF0E941B
:102120003E0E60918903615085E893E00E94250F7F
:1021300020918B0330918C03C901079697FD079678
:10214000F3E095958795FA95E1F720918903309111
:102150008A03829F8001839F100D929F100D11248E
:10216000C091A403D091A5038091A2039091A303F1
:102170000C0F1D1F009709F4CCC02091A60331E07D
:102180003093D5022093D4021092D3021092D2023F
:10219000DC01ED91FC910190F081E02D60E4099566
:1021A000EE24E394F12CDD24D3948091A20390914A
:1021B000A3030C171D0709F476C0B0E2EB16F10477
:1021C000D8F00E943E0E8091A2039091A30320912B
:1021D000A603D092D5022093D4021092D30210927B
:1021E000D202DC01ED91FC910190F081E02D60E4E0
:1021F0000995EE24E394F12C8091A2039091A3031E
:102200006991DC01ED91FC910190F081E02D09953F
:10221000BFEFEB1AFB0AC9CFE091B203F091B30311
:1022200090818091B803809589238083C2EDD5E0A9
:1022300016E0115009F475CFFE0184912091A0039E
:102240003091A103232B21F00E94CF072196F1CFDB
:1022500028E030E040E8E091AE03F091AF039091C8
:10226000B603582F5423D9F05081952B9083E091D9
:10227000B003F091B10390815091B703952B9083F7
:10228000E091B003F091B10350819091B703909524
:1022900095239083469521503109E9F6D7CF508197
:1022A00090959523E3CF0E943E0E8091A2039091DA
:1022B000A303892B09F46FC02091BE033091BF03A3
:1022C0004091C0035091C10360E074E284EF90E05C
:1022D0000E947F18205131094109510956954795AF
:1022E000379527952093B8008091830390918403BC
:1022F0000196883091050CF058C090938403809328
:102300008303DF91CF911F910F91FF90EF90DF90AA
:102310000895E091B203F091B30380819091B803E6
:10232000892B80830C171D0709F4BFCF8991209159
:10233000A0033091A103232B19F00E94CF07F2CF05
:1023400028E030E040E8E091AE03F091AF039091D7
:10235000B603582F5423D9F05081952B9083E091E8
:10236000B003F091B10390815091B703952B908306
:10237000E091B003F091B10350819091B703909533
:1023800095239083469521503109E9F6CBCF5081B2
:1023900090959523E3CFE091B403F091B50380814C
:1023A0009091B903892B80839FCF10928403109260
:1023B000830320918B0330918C03C901079697FD0D
:1023C000079623E0959587952A95E1F72091890353
:1023D00030918A03829FA001839F500D929F500DE0
:1023E000112470E060E08091A4039091A5030E9405
:1023F000971A1092920310929103109294031092E4
:1024000093037FCF0F931F93CF93DF938C01D0E083
:10241000C0E061E086E00E94B70464EF71E080E014
:1024200090E00E94460560E086E00E94B70464EFF9
:1024300071E080E090E00E9446058CE591E00E940A
:10244000EF0F21960C171D0721F7DF91CF911F91F8
:102450000F910895CF93DF93EC0190E080E08C170B
:102460009D07DCF461E085E00E94B70464EF71E051
:1024700080E090E00E94460560E085E00E94B7049D
:1024800064EF71E080E090E00E9446058FE591E006
:102490000E94EF0F81E090E0E2CFDF91CF910895AD
:1024A0000E94891A0F931F93CF93DF93EC018881C9
:1024B0009981009759F02A813B812617370730F020
:1024C00081E0DF91CF911F910F9108958B016F5F94
:1024D0007F4F0E94CC19009759F0998388831B8302
:1024E0000A832C813D81232B59F7FC011082E8CF10
:1024F00080E0E7CF85ED8093BC008091240290912D
:102500002502A0912602B09127020796A11DB11DB8
:1025100023E0B695A795979587952A95D1F72091B1
:10252000BC0024FD03C010926D0208954091240266
:10253000509125026091260270912702452B462B6F
:10254000472B69F30097A105B10541F025E32A95D2
:10255000F1F700000197A109B109E1CF80912302B1
:102560000C946F0D0C943A181F920F920FB60F92A5
:1025700011242F933F934F935F936F937F938F9388
:102580009F93AF93BF93EF93FF938AED92E00E94E6
:10259000D603FF91EF91BF91AF919F918F917F9162
:1025A0006F915F914F913F912F910F900FBE0F90C0
:1025B0001F9018951F920F920FB60F9211242F9310
:1025C0008F939F93EF93FF93E091EA02F091EB02D8
:1025D0008081E091F002F091F10282FD1BC09081B8
:1025E0008091F3028F5F8F732091F402821741F084
:1025F000E091F302F0E0E652FD4F958F8093F302F5
:10260000FF91EF919F918F912F910F900FBE0F909F
:102610001F9018958081F4CF1F920F920FB60F92E2
:1026200011242F933F938F939F93AF93BF938091E8
:10263000D6029091D702A091D802B091D9023091E0
:10264000930223E0230F2D3758F50196A11DB11DEC
:10265000209393028093D6029093D702A093D8023E
:10266000B093D9028091940290919502A091960224
:10267000B09197020196A11DB11D80939402909391
:102680009502A0939602B0939702BF91AF919F914C
:102690008F913F912F910F900FBE0F901F90189523
:1026A00026E8230F0296A11DB11DD2CF1F920F92D3
:1026B0000FB60F9211242F933F934F935F936F9315
:1026C0007F938F939F93AF93BF93EF93FF938091EB
:1026D000B900887F803609F44AC0F0F5883209F4E1
:1026E000A5C018F5803109F499C0B8F4882309F41D
:1026F000F5C0883009F492C0FF91EF91BF91AF917E
:102700009F918F917F916F915F914F913F912F9109
:102710000F900FBE0F901F901895883109F486C056
:10272000803251F780936C0214C0803409F49BC04E
:1027300040F48033B9F38833F9F680936C0285EC6A
:10274000AEC0803509F483C0883509F494C088345C
:1027500099F60E947A12D0CF883909F48AC038F5E8
:10276000883729F050F4883611F0803729F683E055
:1027700080936D0210926B0255C0883809F479C0BD
:10278000803919F0803809F0B7CF80916B02803220
:1027900008F06FC0E0916B0281E08E0F80936B02B6
:1027A0008091BB00F0E0E55BFD4F80833BC0803B48
:1027B00039F0D0F4803A09F477C0883A09F09CCF18
:1027C00084E080936D0210924A0210924902F0E078
:1027D000E0E009958091490281110FC081E080936A
:1027E00049021092290209C0803C09F4A8CF883C14
:1027F00009F4A5CF883B09F07FCFE0914A0281E040
:102800008E0F80934A02F0E0E75DFD4F8081809358
:10281000BB0090914A028091490229C080919202A6
:102820008093BB0085EC8093BC0066CF90919102B1
:1028300080919002981758F5E091910281E08E0FF7
:1028400080939102F0E0E059FD4F8081E9CFE09163
:10285000910281E08E0F809391028091BB00F0E0A5
:10286000E059FD4F808390919102809190029817DA
:10287000C8F285E8D8CFE091910281E08E0F809375
:1028800091028091BB00F0E0E059FD4F8083809180
:102890006F0281115ECF81E080936E0284EA8093A3
:1028A000BC0010926D0228CF85EC8093BC00109282
:1028B0006D0280916B02803230F4E0916B02F0E0A7
:1028C000E55BFD4F108260916B0270E08BE492E05B
:1028D000F0E0E0E0099510926B020ECF10926C02CE
:1028E00038CFEAEDF2E01382128248EE53E060E066
:1028F00070E044835583668377838DE091E0918314
:10290000808385EC90E09587848784EC90E09787BE
:10291000868780EC90E0918B808B81EC90E0938BAC
:10292000828B82EC90E0958B848B86EC90E0978B89
:10293000868B118E128E138E148EA7E7B3E013963A
:102940001C921E92129714964D935D936D937C93F7
:1029500017978FE191E011969C938E93E3E8F3E053
:102960001582148220E830E03783268380E290E0ED
:10297000918780873387228795878487108E178673
:102980001686118A108A81E0878B868B2FEF3FEFA6
:10299000358B248B338B228B818F128E148E138E6A
:1029A00081E391E093838283168E158EB0A3A78F67
:1029B00012A211A28FEF86A387A380A781A782A767
:1029C00080E58093C3031092C4030895CF93DF93EF
:1029D000CDB7DEB728970FB6F894DEBF0FBECDBFD8
:1029E000789484B5826084BD84B5816084BD85B5EA
:1029F000826085BD85B5816085BD80916E008160F6
:102A000080936E001092810080918100826080939B
:102A1000810080918100816080938100809180009D
:102A20008160809380008091B10084608093B100C8
:102A30008091B00081608093B00080917A008460C2
:102A400080937A0080917A00826080937A008091EE
:102A50007A00816080937A0080917A008068809308
:102A60007A001092C100E091EA02F091EB0212E0CC
:102A70001083E091E602F091E7021082E091E80213
:102A8000F091E90280E180831092F202E091EE027F
:102A9000F091EF0286E08083E091EC02F091ED028C
:102AA000808180618083E091EC02F091ED02808171
:102AB00088608083E091EC02F091ED028081806873
:102AC0008083E091EC02F091ED0280818F7D808324
:102AD00062E083E00E94E50462E084E00E94E50495
:102AE00061E085E00E94E50461E086E00E94E50483
:102AF00062E087E00E94E50461E088E00E94E5046E
:102B000060E089E00E94E50461E08AE00E94E5045B
:102B100081E090E00E943218813009F452C062E0F6
:102B200090E080E00E94B21261E082E090E00E94BA
:102B3000B21260E083E090E00E94B21261E081E0B6
:102B400090E00E94B2121093990281E08093980263
:102B500010929A0260EA7FE080E090E00E944605D1
:102B600080919A021F928F93809198021F928F9367
:102B7000809199021F928F9382E691E09F938F93A9
:102B80008BE992E09F938F930E94AE1A8BE992E0BB
:102B90000E94EF0F0FB6F894DEBF0FBECDBF90912D
:102BA0009A0280919902913009F1923081F18091DD
:102BB00099028330B8F5813008F4ACC081E090E030
:102BC000ABC090E080E00E9432188093990283E0CD
:102BD00090E00E94321880939A0282E090E00E9476
:102BE00032188111B7CF10929802B4CF8330F9F622
:102BF00061E08AE00E94B7046AEF70E080E090E054
:102C00000E94460560E08AE00E94B704D0CF83307E
:102C100071F661E08AE00E94B7046CE17CE080E03C
:102C200090E0EECF833009F46DC0843009F46FC0BA
:102C30008091980281110EC061E088E00E94B70483
:102C40006AEF70E080E090E00E94460560E088E076
:102C50000E94B70428EA622E21E0722E0BE912E0EE
:102C600036EC232E31E0332E42E0A42EB12C552435
:102C7000539482E0482E90E0892E90E0992E8AEDC0
:102C800092E00E94B603892B09F477C01A82198258
:102C90001C821B821E821D8270E060E0CE010196C4
:102CA0000E94521229813A81811139C021153105C2
:102CB00019F0C9010E9443191A8219821E821D82CD
:102CC0001C821B820E946803ED80FE8097FD2FC04E
:102CD0008F8318869FEFE91AF90AB701CE01019692
:102CE0000E945212882371F329813A818D819E813D
:102CF000BE01695F7F4F820F931F0E94A71AFE8259
:102D0000ED82E0CF90E080E00E942A1291CF81E036
:102D100090E0FACF83E090E00E94021289CF1E82F9
:102D20001D826BE571E0C9010E94A71ACBCF898192
:102D30009A81E3E0EE16F10420F0BE82AD82FC0140
:102D400012822D813E81232B91F061E971E00E9476
:102D50009E1A892B61F464E971E08AED92E00E9489
:102D6000E00F69E571E08AED92E00E94E00F898151
:102D70009A81009711F00E94431984E00E948E040A
:102D8000019759F483E00E948E04019731F48091F9
:102D90000201811102C05092020187E00E948E045C
:102DA000019731F480910101811102C0509201011B
:102DB00089E00E948E04892B09F047C08091D102DE
:102DC000882309F442C0509200011092D1028FB7BB
:102DD000F894C090D602D090D702E090D802F0903C
:102DE000D9028FBF8091CD029091CE02A091CF02E7
:102DF000B091D002C81AD90AEA0AFB0AFF92EF92F0
:102E0000DF92CF927F926F921F930F930E94AE1A20
:102E10008BE992E00E94EF0F0FB6F894DEBF0FBE71
:102E2000CDBF80919A0294ECC91699E0D906E104CD
:102E3000F10408F0C7C08111D1C050929A0260918C
:102E40009A0283E090E00E94B21283E00E948E0416
:102E5000892BA1F580910201882381F1809199024B
:102E6000843008F4BEC084E0809399028091990276
:102E70008330E1F4F0909A02F1E0FF1609F4B3C058
:102E800022E0F21609F4BEC01F92FF923F922F92E9
:102E90001F930F930E94AE1A8BE992E00E94EF0FEE
:102EA0000F900F900F900F900F900F9060919902DC
:102EB00090E080E00E94B2121092020184E00E9431
:102EC0008E04892B99F580910201882379F18091F4
:102ED0009902882319F08150809399028091990278
:102EE0008330E1F4F0909A0281E0F81609F493C07F
:102EF00092E0F91609F49EC01F92FF923F922F9222
:102F00001F930F930E94AE1A8BE992E00E94EF0F7D
:102F10000F900F900F900F900F900F90609199026B
:102F200090E080E00E94B2121092020187E00E94BD
:102F30008E04892B79F480910101882359F06091E6
:102F4000980265256093980282E090E00E94B21298
:102F50001092010189E00E948E04019739F5809159
:102F60000001882319F18091D10281111DC02FB772
:102F7000F8948091D6029091D702A091D802B09196
:102F8000D9022FBF8093CD029093CE02A093CF029F
:102F9000B093D00267EE71E08BE992E00E94A71A2D
:102FA0008BE992E00E94EF0F5092D10281149104BC
:102FB00009F465CE0E94C203882309F458CE0E940A
:102FC000000055CE811102C040929A02E8E2CE166E
:102FD000E3E2DE06E104F10408F431CF10929A0234
:102FE0002ECF8F5F41CF61E08AE00E94B7046AEF85
:102FF00070E080E090E00E94460560E08AE00E9478
:10300000B70442CF61E08AE00E94B7046CE17CE043
:1030100080E090E0F0CF61E08AE00E94B7046AEFC0
:1030200070E080E090E00E94460560E08AE00E9447
:10303000B70462CF61E08AE00E94B7046CE17CE0F3
:1030400080E090E0F0CF81E391E09093860380935D
:1030500085038091A4039091A503009711F00C942F
:1030600043190895F999FECF92BD81BDF89A992729
:1030700080B50895262FF999FECF1FBA92BD81BD64
:1030800020BD0FB6F894FA9AF99A0FBE01960895EA
:103090002F923F924F925F926F927F928F929F9268
:1030A000AF92BF92CF92DF92EF92FF920F931F9356
:1030B000CF93DF93CDB7DEB7CA1BDB0B0FB6F89407
:1030C000DEBF0FBECDBF09942A88398848885F8447
:1030D0006E847D848C849B84AA84B984C884DF80B8
:1030E000EE80FD800C811B81AA81B981CE0FD11D9C
:1030F0000FB6F894DEBF0FBECDBFED010895A1E27B
:103100001A2EAA1BBB1BFD010DC0AA1FBB1FEE1F61
:10311000FF1FA217B307E407F50720F0A21BB30BAC
:10312000E40BF50B661F771F881F991F1A9469F728
:1031300060957095809590959B01AC01BD01CF0184
:103140000895EE0FFF1F0590F491E02D09940F9361
:103150001F93CF93DF938230910510F482E090E0CB
:10316000E091C703F091C80330E020E0B0E0A0E0B8
:10317000309799F42115310509F44AC0281B390B01
:1031800024303105D8F58A819B816115710589F15B
:10319000FB0193838283FE0111C040815181028132
:1031A000138148175907E0F04817590799F4109709
:1031B00061F012960C93129713961C933296CF01DE
:1031C000DF91CF911F910F9108950093C703109342
:1031D000C803F4CF2115310551F04217530738F0D9
:1031E000A901DB019A01BD01DF01F801C1CFEF01A7
:1031F000F9CF9093C8038093C703CDCFFE01E20FB0
:10320000F31F819391932250310939832883D7CFBB
:103210002091C5033091C603232B41F42091050171
:10322000309106013093C6032093C503209103011A
:10323000309104012115310541F42DB73EB740917D
:10324000070150910801241B350BE091C503F09153
:10325000C603E217F307A0F42E1B3F0B281739070C
:1032600078F0AC014E5F5F4F2417350748F04E0FE2
:103270005F1F5093C6034093C503819391939FCFE3
:10328000F0E0E0E09CCFCF93DF930097E9F0FC0102
:10329000329713821282A091C703B091C803ED0147
:1032A00030E020E01097A1F420813181820F931F3C
:1032B0002091C5033091C6032817390709F061C072
:1032C000F093C603E093C503DF91CF910895EA011F
:1032D000CE17DF07E8F54A815B819E014115510554
:1032E000B1F7E901FB83EA8349915991C40FD51FD6
:1032F000EC17FD0761F4808191810296840F951F80
:10330000E90199838883828193819B838A83F0E09A
:10331000E0E012968D919C9113970097B9F52D914D
:103320003C911197CD010296820F931F2091C50306
:103330003091C6032817390739F6309751F51092A6
:10334000C8031092C703B093C603A093C503BCCFB4
:10335000D383C28340815181840F951FC817D90739
:1033600061F44E5F5F4F88819981480F591F5183E7
:1033700040838A819B81938382832115310509F0E3
:10338000B0CFF093C803E093C7039ECFFD01DC01EB
:10339000C0CF13821282D7CFB0E0A0E0E2EDF9E116
:1033A0000C944A188C01009751F4CB010E94A71885
:1033B0008C01C801CDB7DEB7E0E10C946618FC01C2
:1033C000E60FF71F9C0122503109E217F30708F4BA
:1033D0009DC0D901CD91DC911197C617D70798F000
:1033E000C530D10530F3CE0104978617970708F34F
:1033F000C61BD70B2297C193D1936D937C93CF01BA
:103400000E944319D6CF5B01AC1ABD0A4C018C0E49
:103410009D1EA091C703B091C803512C412CF12CE3
:10342000E12C109731F58091C5039091C603881562
:10343000990509F05CC04616570608F058C08091FF
:10344000030190910401009741F48DB79EB740911C
:10345000070150910801841B950BE817F90708F044
:1034600055C0F093C603E093C503F90171836083EF
:10347000A0CF8D919C91119712966C9012971396F4
:103480007C901397A815B90559F56C0142E0C40E5C
:10349000D11CCA14DB0420F1AC014A195B09DA0122
:1034A0001296159780F06282738251834083D9010E
:1034B0006D937C93E114F10471F0D7011396FC93A2
:1034C000EE93129776CF22968C0F9D1FF901918370
:1034D0008083F301EFCFF093C803E093C70369CF74
:1034E0004816590608F42C017D01D3019ACFCB016F
:1034F0000E94A7187C01009749F0AE01B8010E9414
:103500008E1AC8010E944319870153CF10E000E0D2
:1035100050CF81E090E0F8940C944F1DFB01DC014A
:1035200002C001900D9241505040D8F70895DC013F
:1035300001C06D9341505040E0F70895FB01DC015C
:103540008D91019080190110D9F3990B0895FB0119
:10355000DC0101900D920020E1F70895AEE0B0E0AB
:10356000E4EBFAE10C9456180D891E8986E08C83F1
:103570001A8309838FEF9FE79E838D83AE01475E99
:103580005F4F6F89788DCE0101960E94D11A2F81ED
:103590003885020F131FF80110822E96E4E00C9478
:1035A0007218ABE0B0E0E7EDFAE10C9448187C014A
:1035B0003B018A01FC0117821682838181FFC8C109
:1035C000CE0101965C01F7019381F30193FD859192
:1035D00093FF81913F01882309F453C1853239F467
:1035E00093FD859193FF81913F01853229F4B701C5
:1035F00090E00E94C11CE7CF912C212C312CFFE1DF
:10360000F31538F08B3211F190F4803209F18332E6
:1036100029F137FC3CC020ED280F2A3050F536FE4A
:1036200020C08AE0989E200D1124922E06C08D3273
:1036300091F0803371F7689430F8F30193FD859130
:1036400093FF81913F018111DACF21C0689431F855
:10365000689432F8F2CF689433F8EFCF689434F876
:10366000ECCFEAE02E9E200D1124222E689435F82E
:10367000E4CF8E3229F436FC04C1689436F8DDCFED
:103680008C3619F4689437F8D8CF8836B1F2982F71
:103690009F7D95549330E0F08336A1F18337C1F1DB
:1036A000833509F063C02801F2E04F0E511CF80188
:1036B000C080D180692D70E036FC02C06FEF7FEFD3
:1036C000C6010E94AB1C4C01689437F882010AC005
:1036D0000C5F1F4FFFE3F98388248394912C6501CD
:1036E000E89437F833FE2DC0522C8114910471F503
:1036F000552009F468CFB70180E290E00E94C11C18
:103700005A94F6CFF801808189830E5F1F4FE4CF72
:103710002801F2E04F0E511CF801C080D180692DC4
:1037200070E036FC02C06FEF7FEFC6010E94B61C4E
:103730004C018201D5CFB70180E290E00E94C11C0C
:103740002A942814190409F0B0F7CECFF60137FCFB
:10375000859137FE81916F01B70190E00E94C11CF5
:1037600051105A94F1E08F1A9108BFCF843619F0A6
:10377000893609F077C0F80137FE6BC0608171812E
:10378000828193810C5F1F4FF32DFF763F2E97FFB1
:1037900009C090958095709561957F4F8F4F9F4F91
:1037A000689437F82AE030E0A5010E94F11CC82E89
:1037B000CA188C2C432C36FE0CC0E89440F8C9146F
:1037C00040F434FE05C032FC03C0F32DFE7E4F2EC4
:1037D000892C44FE95C0FE01EC0DF11D80818033E3
:1037E00009F087C0242D297E422E842D8870582E02
:1037F00043FC95C040FE8FC09C2C821418F42C0C06
:10380000922C981844FE91C0B70180E390E00E948A
:10381000C11C42FE09C088E790E041FE02C088E575
:1038200090E0B7010E94C11CC91408F48AC0CA9470
:10383000D12C9FEFC91AD90ACA0CDB1CF601829160
:103840006F01B70190E00E94C11CAC14BD04B1F738
:103850004FCF60817181072E000C880B990B0E5F92
:103860001F4F92CFD32CE894D4F82AE030E085376C
:1038700039F1232D297FD22E8F3601F148F4883576
:10388000A9F0F701868197812B96E2E10C946418E8
:10389000803749F08837A9F7D4FE02C06894D2F87F
:1038A00020E130E00DC06894D4F8F6CF34FE03C0B8
:1038B000822F8660D82E20E132E002C028E030E07E
:1038C000F801D7FE0FC060817181828193810C5F06
:1038D0001F4FA5010E94F11CC82ECA183D2CE89468
:1038E00037F867CF6081718190E080E00E5F1F4FF5
:1038F000F0CF42FC02C0839478CF8394839475CF39
:10390000842D867809F471CFF6CFB70180E290E07C
:103910000E94C11C83948214C0F3512C73CF522C8B
:103920005818821408F46ECFF8CF842D867809F4E5
:103930007BCF8BE241FE80E247FC8DE2B70190E055
:1039400071CFB70180E390E00E94C11C9A946CCFC4
:103950008FEF9FEF99CFFC010590615070400110EF
:10396000D8F7809590958E0F9F1F0895FC016150A8
:10397000704001900110D8F7809590958E0F9F1F91
:1039800008950F931F93CF93DF93182F092FEB0107
:103990008B8181FD09C01FEF0FEF812F902FDF91E9
:1039A000CF911F910F91089582FF14C02E813F8106
:1039B0008C819D81281739073CF4E881F981CF017A
:1039C00001969983888310838E819F8101969F83BE
:1039D0008E83E3CFE885F985812F0995892BA1F3A3
:1039E000DACFFA01AA27283051F1203181F1E89489
:1039F0006F936E7F6E5F7F4F8F4F9F4FAF4FB1E0E2
:103A00003ED0B4E03CD0670F781F891F9A1FA11DDC
:103A1000680F791F8A1F911DA11D6A0F711D811DDD
:103A2000911DA11D20D009F468943F912AE0269FA2
:103A300011243019305D3193DEF6CF010895462F01
:103A40004770405D4193B3E00FD0C9F7F6CF462FE2
:103A50004F70405D4A3318F0495D31FD405241934B
:103A600002D0A9F7EACFB4E0A69597958795779508
:103A70006795BA95C9F700976105710508959B018F
:103A8000AC010A2E06945795479537952795BA9518
:103A9000C9F7620F731F841F951FA01D089512E0C0
:103AA000CDEED2E004C0FE010E94A1182196CE3EC8
:103AB000D107C9F7F894FFCF0101010000C90380C5
:103AC0000000000000F803180345034504B6035442
:103AD00003A803000000000F0EE20DDD0F910CDBC8
:103AE0000DD80DD50D00000000140A1803DD0F6E6F
:103AF0000D1F07910CBA0C920CAE0CA20CC10C91CC
:103B00000CDA07870F8F06D806DA0BBD0B450BE6DC
:103B10000A0D0A00636300636C004D454D4F525916
:103B200020434F4E54454E543A20444D3A2025648C
:103B30002C204953473A2025642C20542D4D6F6486
:103B4000653A2025642E2E2E006964006B73646D27
:103B5000332D6176722D73706F7274706C75730093
:103B6000543A205472616374696F6E2072656C659B
:103B7000617365642074696D653A20256400543A68
:103B80002053706F7274204D6F64652044657465B6
:103B900063742C205473746174653A202564005456
:103BA0003A205472616374696F6E20686F6C642090
:0A3BB000737461727465642E0000E6
:107800000C94343C0C94513C0C94513C0C94513CE1
:107810000C94513C0C94513C0C94513C0C94513CB4
:107820000C94513C0C94513C0C94513C0C94513CA4
:107830000C94513C0C94513C0C94513C0C94513C94
:107840000C94513C0C94513C0C94513C0C94513C84
:107850000C94513C0C94513C0C94513C0C94513C74
:107860000C94513C0C94513C11241FBECFEFD8E036
:10787000DEBFCDBF11E0A0E0B1E0ECE9FFE702C060
:1078800005900D92A230B107D9F712E0A2E0B1E065
:1078900001C01D92AD30B107E1F70E942D3D0C945F
:1078A000CC3F0C94003C982F959595959595959582
:1078B000905D8F708A307CF0282F295A8091C0000B
:1078C00085FFFCCF9093C6008091C00085FFFCCF60
:1078D0002093C6000895282F205DF0CF982F809127
:1078E000C00085FFFCCF9093C6000895EF92FF92F1
:1078F0000F931F93EE24FF2487018091C00087FD22
:1079000017C00894E11CF11C011D111D81E4E8164B
:1079100082E4F8068FE0080780E0180770F3E09132
:107920000401F091050109958091C00087FFE9CF1E
:107930008091C6001F910F91FF90EF9008950E94D3
:10794000763C982F8091C00085FFFCCF9093C600B5
:1079500091362CF490330CF09053892F089597555D
:10796000892F08951F930E949F3C182F0E949F3CCF
:107970001295107F810F1F9108951F93182F882350
:1079800021F00E94763C1150E1F71F9108951F935A
:10799000182F0E94763C803249F0809103018F5F5E
:1079A000809303018530C1F01F9108958091C0003C
:1079B00085FFFCCF84E18093C6008091C00085FFE5
:1079C000FCCF1093C6008091C00085FFFCCF80E102
:1079D0008093C6001F910895E0910401F091050184
:1079E00009951F9108950E94763C803241F0809164
:1079F00003018F5F80930301853081F008958091AA
:107A0000C00085FFFCCF84E18093C6008091C00058
:107A100085FFFCCF80E18093C6000895E0910401CA
:107A2000F09105010995089540E951E08823A1F0FE
:107A30002D9A28EE33E0FA013197F1F721503040CA
:107A4000D1F72D9828EE33E0FA013197F1F7215064
:107A50003040D1F7815061F708953F924F925F9285
:107A60006F927F928F929F92AF92BF92CF92DF924E
:107A7000EF92FF920F931F93CF93DF93000080E16B
:107A80008093C4001092C50088E18093C10086E015
:107A90008093C2005098589A259A81E00E94143D24
:107AA00024E1F22E9EE1E92E85E9D82E0FE0C02ECA
:107AB00010E1B12EAA24A394B1E49B2EA6E58A2E50
:107AC000F2E57F2EE0E26E2E79E4572E63E5462E36
:107AD00050E5352E0E94763C8033B1F18133B9F107
:107AE000803409F46FC0813409F476C0823409F41B
:107AF00085C0853409F488C0803531F1823521F1A3
:107B0000813511F1853509F485C0863509F48DC0BC
:107B1000843609F496C0843709F403C1853709F423
:107B200072C1863709F466C0809103018F5F80932C
:107B30000301853079F6E0910401F0910501099582
:107B40000E94763C803351F60E94F33CC3CF0E94E2
:107B5000763C803249F78091C00085FFFCCFF092DF
:107B6000C6008091C00085FFFCCF9092C600809136
:107B7000C00085FFFCCF8092C6008091C00085FFC9
:107B8000FCCF7092C6008091C00085FFFCCF609250
:107B9000C6008091C00085FFFCCF5092C600809146
:107BA000C00085FFFCCF4092C6008091C00085FFD9
:107BB000FCCF3092C6008091C00085FFFCCFB09210
:107BC000C60088CF0E94763C863808F4BDCF0E945C
:107BD000763C0E94F33C7ECF0E94763C803809F4CC
:107BE0009CC0813809F40BC1823809F43CC1883942
:107BF00009F48FC080E00E94C73C6CCF84E10E94F2
:107C0000BD3C0E94F33C66CF85E00E94BD3C0E94D3
:107C1000F33C60CF0E94763C809306010E94763C44
:107C2000809307010E94F33C55CF0E94763C80333D
:107C300009F41DC183E00E94BD3C80E00E94C73C66
:107C400049CF0E94763C809309020E94763C809343
:107C5000080280910C028E7F80930C020E94763C79
:107C6000853409F415C18091080290910902892B8D
:107C700089F000E010E00E94763CF801E85FFE4FDA
:107C800080830F5F1F4F80910802909109020817AF
:107C9000190788F30E94763C803209F045CF809125
:107CA0000C0280FF01C16091060170910701660F0F
:107CB000771F7093070160930601A0910802B091AD
:107CC00009021097C9F0E8E0F1E09B01AD014E0F09
:107CD0005F1FF999FECF32BD21BD819180BDFA9A17
:107CE000F99A2F5F3F4FE417F50799F76A0F7B1F4B
:107CF00070930701609306018091C00085FFFCCF5F
:107D0000F092C6008091C00085FFFCCFB092C60003
:107D1000E1CE83E00E94C73CDDCE82E00E94C73CFA
:107D2000D9CE0E94763C809309020E94763C8093D3
:107D300008028091060190910701880F991F909386
:107D40000701809306010E94763C853409F4A6C0A1
:107D500080910C028E7F80930C020E94763C8032D0
:107D600009F0B8CE8091C00085FFFCCFF092C6002C
:107D7000609108027091090261157105B9F140E046
:107D800050E080910C02A82FA170B82FB27011C0E2
:107D9000BB2309F45CC0E0910601F0910701319624
:107DA000F0930701E09306014F5F5F4F46175707B7
:107DB000E8F4AA2369F3F999FECF209106013091E6
:107DC000070132BD21BDF89A90B58091C00085FFB2
:107DD000FCCF9093C6002F5F3F4F30930701209355
:107DE00006014F5F5F4F4617570718F38091C00099
:107DF00085FDE5CE8091C00085FFF8CFE0CE81E023
:107E00000E94C73C67CE0E94763C803209F08CCE3F
:107E10008091C00085FFFCCFF092C6008091C00029
:107E200085FFFCCFE092C6008091C00085FFFCCFAB
:107E3000D092C6008091C00085FFFCCFC092C600E2
:107E40008091C00085FFFCCFB092C60043CEE09188
:107E50000601F091070194918091C00085FFFCCF4D
:107E60009093C6009CCF80E10E94C73C33CE0E9415
:107E7000763C0E94763C182F0E94763C112309F430
:107E800083C0113009F484C08FE00E94C73C22CE29
:107E900080910C02816080930C02E5CE80910C02EF
:107EA000816080930C0259CF809107018823880F4D
:107EB000880B8A2180930B02809106019091070123
:107EC000880F991F90930701809306018091080203
:107ED00080FF09C080910802909109020196909359
:107EE000090280930802F894F999FECF1127E091D6
:107EF0000601F0910701C8E0D1E08091080290915D
:107F00000902103091F40091570001700130D9F34B
:107F100003E000935700E89500915700017001308D
:107F2000D9F301E100935700E89509901990009169
:107F3000570001700130D9F301E000935700E89534
:107F40001395103498F011270091570001700130FB
:107F5000D9F305E000935700E895009157000170B0
:107F60000130D9F301E100935700E895329602976A
:107F700009F0C7CF103011F00296E5CF112480919F
:107F8000C00085FFB9CEBCCE8EE10E94C73CA2CD19
:0E7F900085E90E94C73C9ECDF894FFCF80008B
:00000001FF
