:020000040000FA
:100000000C9462000C948A000C948A000C948A0070
:100010000C948A000C948A000C948A000C948A0038
:100020000C948A000C948A000C948A000C948A0028
:100030000C948A000C948A000C948A000C948A0018
:100040000C94B4030C948A000C9482030C945C030B
:100050000C948A000C948A000C948A000C948A00F8
:100060000C948A000C948A000000000024002700F1
:100070002A0000000000250028002B0000000000DE
:1000800023002600290004040404040404040202DA
:100090000202020203030303030301020408102007
:1000A0004080010204081020010204081020000012
:1000B0000008000201000003040700000000000027
:1000C00000002F0611241FBECFEFD8E0DEBFCDBF4A
:1000D00021E0AEE2B1E001C01D92AB3DB207E1F715
:1000E00011E0A0E0B1E0E8E5F1E102C005900D9279
:1000F000AE32B107D9F710E0C2E6D0E004C02197D4
:10010000FE010E94A906C136D107C9F70E94FE036D
:100110000C94AA080C940000AF92BF92CF92DF9289
:10012000EF92FF920F931F93CF93DF936C017B01AC
:100130008B01040F151FEB015E01AE18BF08C0173D
:10014000D10759F06991D601ED91FC910190F081B0
:10015000E02DC6010995892B79F7C501DF91CF9173
:100160001F910F91FF90EF90DF90CF90BF90AF90D5
:100170000895FC01538D448D252F30E0842F90E0AD
:10018000821B930B541710F0CF9608950197089592
:10019000FC01918D828D981761F0A28DAE0FBF2F5B
:1001A000B11D5D968C91928D9F5F9F73928F90E0B1
:1001B00008958FEF9FEF08952FB7F894809136013F
:1001C00090913701A0913801B09139012FBF8093F0
:1001D000420190934301A0934401B09345018AE307
:1001E00091E00E94C80097FF26C02FB7F894809135
:1001F000360190913701A0913801B09139012FBF9C
:100200004091420150914301609144017091450138
:10021000841B950BA60BB70B40913E0150913F01FB
:10022000609140017091410184179507A607B707B7
:10023000B0F28FEF9FEF0895FC01918D828D98179A
:1002400031F0828DE80FF11D858D90E008958FEFDC
:100250009FEF0895FC01918D228D892F90E0805CA5
:100260009F4F821B91098F73992708958AE391E02C
:100270000E942A0121E0892B09F420E0822F0895B1
:1002800080E090E0892B29F00E94360181110C94C6
:1002900000000895FC01A48DA80FB92FB11DA35A29
:1002A000BF4F2C91848D90E001968F739927848F96
:1002B000A689B7892C93A089B1898C9183708064B9
:1002C0008C93938D848D981306C00288F389E02D5A
:1002D00080818F7D80830895EF92FF920F931F930B
:1002E000CF93DF93EC0181E0888F9B8D8C8D9813E9
:1002F0001AC0E889F989808185FF15C09FB7F894F5
:10030000EE89FF896083E889F98980818370806440
:1003100080839FBF81E090E0DF91CF911F910F918B
:10032000FF90EF900895F62E0B8D10E00F5F1F4F9A
:100330000F731127E02E8C8D8E110CC00FB607FCA9
:10034000FACFE889F989808185FFF5CFCE010E9437
:100350004A01F1CFEB8DEC0FFD2FF11DE35AFF4F5A
:10036000F0829FB7F8940B8FEA89FB8980818062C5
:10037000CFCFCF93DF93EC01888D8823B9F0AA8982
:10038000BB89E889F9898C9185FD03C0808186FD50
:100390000DC00FB607FCF7CF8C9185FFF2CF80819F
:1003A00085FFEDCFCE010E944A01E9CFDF91CF91C9
:1003B0000895833081F028F4813099F08230A9F0DB
:1003C00008958730A9F08830C9F08430B1F4809165
:1003D00080008F7D03C0809180008F7780938000A4
:1003E000089584B58F7784BD089584B58F7DFBCF44
:1003F0008091B0008F778093B00008958091B00015
:100400008F7DF9CFCF93DF93282F30E0F901E255AC
:10041000FF4F8491F901E656FF4FD491F901EA5755
:10042000FF4FC491CC23A1F081110E94D901EC2F80
:10043000F0E0EE0FFF1FE458FF4FA591B491EC914F
:10044000ED2381E090E009F480E0DF91CF91089501
:1004500080E090E0FACF1F93CF93DF93282F30E016
:10046000F901E255FF4F8491F901E656FF4FD4910F
:10047000F901EA57FF4FC491CC23A9F0162F81113F
:100480000E94D901EC2FF0E0EE0FFF1FEE58FF4F56
:10049000A591B4918FB7F894EC91111108C0D09543
:1004A000DE23DC938FBFDF91CF911F910895DE2B68
:1004B000F8CFCF93DF9390E0FC01E656FF4F2491F5
:1004C0008A579F4FFC0184918823C9F090E0880FE0
:1004D000991FFC01E859FF4FA591B491FC01EE581A
:1004E000FF4FC591D49161110DC09FB7F8948C91C5
:1004F000209582238C938881282328839FBFDF91B6
:10050000CF910895623051F49FB7F8943C91822FB7
:10051000809583238C93E8812E2BEFCF8FB7F894AF
:10052000EC912E2B2C938FBFEACF3FB7F89480919C
:100530002F0190913001A0913101B091320126B587
:10054000A89B05C02F3F19F00196A11DB11D3FBF0B
:10055000BA2FA92F982F8827BC01CD01620F711DDA
:10056000811D911D42E0660F771F881F991F4A95D4
:10057000D1F708958F929F92AF92BF92CF92DF9260
:10058000EF92FF924B015C010E9495026B017C018E
:100590000E9495026C197D098E099F09683E73407F
:1005A00081059105A8F321E0821A9108A108B108FC
:1005B00088EEC80E83E0D81EE11CF11C8114910462
:1005C000A104B10429F7FF90EF90DF90CF90BF9086
:1005D000AF909F908F9008950F931F93CF93DF93C9
:1005E0008C01D0E0C0E061E086E00E942B0264EF65
:1005F00071E080E090E00E94BA0260E086E00E9434
:100600002B0264EF71E080E090E00E94BA02219634
:100610000C171D0741F7DF91CF911F910F9108959E
:10062000CF93DF93EC0190E080E08C179D07BCF442
:1006300061E085E00E942B0264EF71E080E090E0D1
:100640000E94BA0260E085E00E942B0264EF71E034
:1006500080E090E00E94BA0281E090E0E6CFDF9176
:10066000CF9108950F931F93CF93DF93EC0188816F
:100670009981009759F02A813B812617370730F07E
:1006800081E0DF91CF911F910F9108958B016F5FF2
:100690007F4F0E94D407009759F0998388831B836A
:1006A0000A832C813D81232B59F7FC011082E8CF6E
:1006B00080E0E7CF0C9464061F920F920FB60F9262
:1006C00011242F933F934F935F936F937F938F9357
:1006D0009F93AF93BF93EF93FF938AE391E00E94C0
:1006E0004A01FF91EF91BF91AF919F918F917F91BF
:1006F0006F915F914F913F912F910F900FBE0F908F
:100700001F9018951F920F920FB60F9211242F93DE
:100710008F939F93EF93FF93E0914A01F0914B01E8
:100720008081E0915001F091510182FD1BC09081C8
:10073000809153018F5F8F7320915401821741F094
:10074000E0915301F0E0E65CFE4F958F80935301FA
:10075000FF91EF919F918F912F910F900FBE0F906E
:100760001F9018958081F4CF1F920F920FB60F92B1
:1007700011242F933F938F939F93AF93BF938091B7
:10078000360190913701A0913801B0913901309133
:100790002E0123E0230F2D3758F50196A11DB11D21
:1007A00020932E018093360190933701A093380156
:1007B000B093390180912F0190913001A0913101C6
:1007C000B09132010196A11DB11D80932F0190932C
:1007D0003001A0933101B0933201BF91AF919F914D
:1007E0008F913F912F910F900FBE0F901F901895F2
:1007F00026E8230F0296A11DB11DD2CFCF93DF9320
:10080000CDB7DEB728970FB6F894DEBF0FBECDBFC9
:10081000789484B5826084BD84B5816084BD85B5DB
:10082000826085BD85B5816085BD80916E008160E7
:1008300080936E001092810080918100826080938D
:10084000810080918100816080938100809180008F
:100850008160809380008091B10084608093B100BA
:100860008091B00081608093B00080917A008460B4
:1008700080937A0080917A00826080937A008091E0
:100880007A00816080937A0080917A0080688093FA
:100890007A001092C10062E083E00E94590262E097
:1008A00084E00E94590261E085E00E94590261E003
:1008B00086E00E94590262E087E00E94590261E0EE
:1008C00088E00E94590260E089E00E94590261E0DC
:1008D0008AE00E945902E0914A01F0914B0102E046
:1008E0000083E0914601F09147011082E0914801B8
:1008F000F091490180E1808310925201E0914E0114
:10090000F0914F0186E08083E0914C01F0914D0120
:10091000808180618083E0914C01F0914D01808164
:1009200088608083E0914C01F0914D018081806866
:100930008083E0914C01F0914D0180818F7D808317
:1009400081E090E00E945C06182F813059F162E04E
:1009500090E080E00E945A0361E082E090E00E9413
:100960005A0360E083E090E00E945A0361E081E076
:1009700090E00E945A030093350181E08093340196
:100980001092330160EA7FE080E090E00E94BA02BA
:1009900080913501833000F5813008F499C081E001
:1009A00090E098C0809334011092330190E080E091
:1009B0000E945C068093350183E090E00E945C0613
:1009C00081111093330182E090E00E945C06811156
:1009D000D9CF10923401D6CF833009F471C084305E
:1009E00009F473C080913301882371F061E08AE0DB
:1009F0000E942B026AEF70E080E090E00E94BA0251
:100A000060E08AE00E942B028091340181110EC0C7
:100A100061E088E00E942B026AEF70E080E090E0E5
:100A20000E94BA0260E088E00E942B02AA24A394EC
:100A300080E0C82E80E0D82EBB24B3948AE391E0F6
:100A40000E942A01892B09F474C01A8219821C821F
:100A50001B821E821D8270E060E0CE0101960E9422
:100A6000320329813A81811138C02115310519F0ED
:100A7000C9010E944B071A8219821E821D821C82A4
:100A80001B820E94DC000D811E8197FD2EC08F838A
:100A900018860F5F1F4FB801CE0101960E943203E6
:100AA000882379F329813A818D819E81BE01695F16
:100AB0007F4F820F931F0E94A3081E830D83E1CFF7
:100AC00090E080E00E9410038DCF81E090E0FACFAB
:100AD00083E090E00E94EC0285CF1E821D826CE2D2
:100AE00071E0C9010E94A308CCCFE980FA80012BF4
:100AF00009F4ACC06BE171E0C7010E949A0811E0F3
:100B0000892B09F010E0E114F10409F0A4C01123CD
:100B100081F04BE050E06EE171E08AE391E00E94E9
:100B20008C0042E050E06AE271E08AE391E00E94CA
:100B30008C0084E00E940202019759F483E00E9435
:100B40000202019731F480910201811102C0B0923A
:100B5000020187E00E940202019731F480910101B5
:100B6000811102C0B092010189E00E940202892B2A
:100B700031F480910001811102C0B092000183E044
:100B80000E940202892BA1F480910201882381F046
:100B900080913501843008F457C084E0809335019A
:100BA0006091350190E080E00E945A0310920201AA
:100BB00084E00E940202892B99F48091020188232B
:100BC00079F080913501882319F0815080933501A7
:100BD0006091350190E080E00E945A03109202017A
:100BE00087E00E940202892B79F480910101882319
:100BF00059F0609134016A256093340182E090E0FD
:100C00000E945A031092010189E00E94020201979A
:100C100079F480910001882359F0609133016A25AD
:100C20006093330183E090E00E945A031092000128
:100C3000C114D10409F402CF0E943601882309F4BB
:100C4000FDCE0E940000FACE8F5FA8CF10E0E11425
:100C5000F10409F46ECFC7010E944B0758CFEAE3B5
:100C6000F1E01382128288EE93E0A0E0B0E084838A
:100C70009583A683B7838DE091E09183808385EC93
:100C800090E09587848784EC90E09787868780EC56
:100C900090E0918B808B81EC90E0938B828B82EC47
:100CA00090E0958B848B86EC90E0978B868B118EF1
:100CB000128E138E148E0895F999FECF92BD81BDC8
:100CC000F89A992780B50895262FF999FECF1FBA73
:100CD00092BD81BD20BD0FB6F894FA9AF99A0FBE65
:100CE000019608952F923F924F925F926F927F925A
:100CF0008F929F92AF92BF92CF92DF92EF92FF922C
:100D00000F931F93CF93DF93CDB7DEB7CA1BDB0BD7
:100D10000FB6F894DEBF0FBECDBF09942A8839887C
:100D200048885F846E847D848C849B84AA84B98483
:100D3000C884DF80EE80FD800C811B81AA81B9818F
:100D4000CE0FD11D0FB6F894DEBF0FBECDBFED01A3
:100D50000895EE0FFF1F0590F491E02D09940F9375
:100D60001F93CF93DF938230910510F482E090E0DF
:100D7000E091D901F091DA0130E020E0B0E0A0E0AC
:100D8000309799F42115310509F44AC0281B390B15
:100D900024303105D8F58A819B816115710589F16F
:100DA000FB0193838283FE0111C040815181028146
:100DB000138148175907E0F04817590799F410971D
:100DC00061F012960C93129713961C933296CF01F2
:100DD000DF91CF911F910F9108950093D901109346
:100DE000DA01F4CF2115310551F04217530738F0DD
:100DF000A901DB019A01BD01DF01F801C1CFEF01BB
:100E0000F9CF9093DA018093D901CDCFFE01E20FA3
:100E1000F31F819391932250310939832883D7CFCF
:100E20002091D7013091D801232B41F42091050165
:100E3000309106013093D8012093D701209103010E
:100E4000309104012115310541F42DB73EB7409191
:100E5000070150910801241B350BE091D701F09157
:100E6000D801E217F307A0F42E1B3F0B2817390710
:100E700078F0AC014E5F5F4F2417350748F04E0FF6
:100E80005F1F5093D8014093D701819391939FCFD7
:100E9000F0E0E0E09CCFCF93DF930097E9F0FC0116
:100EA000329713821282A091D901B091DA01ED013B
:100EB00030E020E01097A1F420813181820F931F50
:100EC0002091D7013091D8012817390709F061C066
:100ED000F093D801E093D701DF91CF910895EA0113
:100EE000CE17DF07E8F54A815B819E014115510568
:100EF000B1F7E901FB83EA8349915991C40FD51FEA
:100F0000EC17FD0761F4808191810296840F951F93
:100F1000E90199838883828193819B838A83F0E0AE
:100F2000E0E012968D919C9113970097B9F52D9161
:100F30003C911197CD010296820F931F2091D7010A
:100F40003091D8012817390739F6309751F51092AA
:100F5000DA011092D901B093D801A093D701BCCF88
:100F6000D383C28340815181840F951FC817D9074D
:100F700061F44E5F5F4F88819981480F591F5183FB
:100F800040838A819B81938382832115310509F0F7
:100F9000B0CFF093DA01E093D9019ECFFD01DC01DF
:100FA000C0CF13821282D7CFB0E0A0E0EAEDF7E025
:100FB0000C9474068C01009751F4CB010E94AF068B
:100FC0008C01C801CDB7DEB7E0E10C949006FC01BE
:100FD000E60FF71F9C0122503109E217F30708F4CE
:100FE0009DC0D901CD91DC911197C617D70798F014
:100FF000C530D10530F3CE0104978617970708F363
:10100000C61BD70B2297C193D1936D937C93CF01CD
:101010000E944B07D6CF5B01AC1ABD0A4C018C0E67
:101020009D1EA091D901B091DA01512C412CF12CD7
:10103000E12C109731F58091D7019091D801881556
:10104000990509F05CC04616570608F058C0809113
:10105000030190910401009741F48DB79EB7409130
:10106000070150910801841B950BE817F90708F058
:1010700055C0F093D801E093D701F90171836083E3
:10108000A0CF8D919C91119712966C901297139608
:101090007C901397A815B90559F56C0142E0C40E70
:1010A000D11CCA14DB0420F1AC014A195B09DA0136
:1010B0001296159780F06282738251834083D90122
:1010C0006D937C93E114F10471F0D7011396FC93B6
:1010D000EE93129776CF22968C0F9D1FF901918384
:1010E0008083F301EFCFF093DA01E093D90169CF68
:1010F0004816590608F42C017D01D3019ACFCB0183
:101100000E94AF067C01009749F0AE01B8010E9431
:101110009108C8010E944B07870153CF10E000E0FF
:1011200050CFFB01DC0102C001900D9241505040B4
:10113000D8F70895FB01DC018D9101908019011011
:10114000D9F3990B0895FB01DC0101900D92002069
:10115000E1F70895F894FFCF0101010000DB018061
:1011600000000000006C018C00B900B9012A01C820
:10117000001C016964006B73646D332D6176722D00
:0611800033000D0A00001F
:107800000C94343C0C94513C0C94513C0C94513CE1
:107810000C94513C0C94513C0C94513C0C94513CB4
:107820000C94513C0C94513C0C94513C0C94513CA4
:107830000C94513C0C94513C0C94513C0C94513C94
:107840000C94513C0C94513C0C94513C0C94513C84
:107850000C94513C0C94513C0C94513C0C94513C74
:107860000C94513C0C94513C11241FBECFEFD8E036
:10787000DEBFCDBF11E0A0E0B1E0ECE9FFE702C060
:1078800005900D92A230B107D9F712E0A2E0B1E065
:1078900001C01D92AD30B107E1F70E942D3D0C945F
:1078A000CC3F0C94003C982F959595959595959582
:1078B000905D8F708A307CF0282F295A8091C0000B
:1078C00085FFFCCF9093C6008091C00085FFFCCF60
:1078D0002093C6000895282F205DF0CF982F809127
:1078E000C00085FFFCCF9093C6000895EF92FF92F1
:1078F0000F931F93EE24FF2487018091C00087FD22
:1079000017C00894E11CF11C011D111D81E4E8164B
:1079100082E4F8068FE0080780E0180770F3E09132
:107920000401F091050109958091C00087FFE9CF1E
:107930008091C6001F910F91FF90EF9008950E94D3
:10794000763C982F8091C00085FFFCCF9093C600B5
:1079500091362CF490330CF09053892F089597555D
:10796000892F08951F930E949F3C182F0E949F3CCF
:107970001295107F810F1F9108951F93182F882350
:1079800021F00E94763C1150E1F71F9108951F935A
:10799000182F0E94763C803249F0809103018F5F5E
:1079A000809303018530C1F01F9108958091C0003C
:1079B00085FFFCCF84E18093C6008091C00085FFE5
:1079C000FCCF1093C6008091C00085FFFCCF80E102
:1079D0008093C6001F910895E0910401F091050184
:1079E00009951F9108950E94763C803241F0809164
:1079F00003018F5F80930301853081F008958091AA
:107A0000C00085FFFCCF84E18093C6008091C00058
:107A100085FFFCCF80E18093C6000895E0910401CA
:107A2000F09105010995089540E951E08823A1F0FE
:107A30002D9A28EE33E0FA013197F1F721503040CA
:107A4000D1F72D9828EE33E0FA013197F1F7215064
:107A50003040D1F7815061F708953F924F925F9285
:107A60006F927F928F929F92AF92BF92CF92DF924E
:107A7000EF92FF920F931F93CF93DF93000080E16B
:107A80008093C4001092C50088E18093C10086E015
:107A90008093C2005098589A259A81E00E94143D24
:107AA00024E1F22E9EE1E92E85E9D82E0FE0C02ECA
:107AB00010E1B12EAA24A394B1E49B2EA6E58A2E50
:107AC000F2E57F2EE0E26E2E79E4572E63E5462E36
:107AD00050E5352E0E94763C8033B1F18133B9F107
:107AE000803409F46FC0813409F476C0823409F41B
:107AF00085C0853409F488C0803531F1823521F1A3
:107B0000813511F1853509F485C0863509F48DC0BC
:107B1000843609F496C0843709F403C1853709F423
:107B200072C1863709F466C0809103018F5F80932C
:107B30000301853079F6E0910401F0910501099582
:107B40000E94763C803351F60E94F33CC3CF0E94E2
:107B5000763C803249F78091C00085FFFCCFF092DF
:107B6000C6008091C00085FFFCCF9092C600809136
:107B7000C00085FFFCCF8092C6008091C00085FFC9
:107B8000FCCF7092C6008091C00085FFFCCF609250
:107B9000C6008091C00085FFFCCF5092C600809146
:107BA000C00085FFFCCF4092C6008091C00085FFD9
:107BB000FCCF3092C6008091C00085FFFCCFB09210
:107BC000C60088CF0E94763C863808F4BDCF0E945C
:107BD000763C0E94F33C7ECF0E94763C803809F4CC
:107BE0009CC0813809F40BC1823809F43CC1883942
:107BF00009F48FC080E00E94C73C6CCF84E10E94F2
:107C0000BD3C0E94F33C66CF85E00E94BD3C0E94D3
:107C1000F33C60CF0E94763C809306010E94763C44
:107C2000809307010E94F33C55CF0E94763C80333D
:107C300009F41DC183E00E94BD3C80E00E94C73C66
:107C400049CF0E94763C809309020E94763C809343
:107C5000080280910C028E7F80930C020E94763C79
:107C6000853409F415C18091080290910902892B8D
:107C700089F000E010E00E94763CF801E85FFE4FDA
:107C800080830F5F1F4F80910802909109020817AF
:107C9000190788F30E94763C803209F045CF809125
:107CA0000C0280FF01C16091060170910701660F0F
:107CB000771F7093070160930601A0910802B091AD
:107CC00009021097C9F0E8E0F1E09B01AD014E0F09
:107CD0005F1FF999FECF32BD21BD819180BDFA9A17
:107CE000F99A2F5F3F4FE417F50799F76A0F7B1F4B
:107CF00070930701609306018091C00085FFFCCF5F
:107D0000F092C6008091C00085FFFCCFB092C60003
:107D1000E1CE83E00E94C73CDDCE82E00E94C73CFA
:107D2000D9CE0E94763C809309020E94763C8093D3
:107D300008028091060190910701880F991F909386
:107D40000701809306010E94763C853409F4A6C0A1
:107D500080910C028E7F80930C020E94763C8032D0
:107D600009F0B8CE8091C00085FFFCCFF092C6002C
:107D7000609108027091090261157105B9F140E046
:107D800050E080910C02A82FA170B82FB27011C0E2
:107D9000BB2309F45CC0E0910601F0910701319624
:107DA000F0930701E09306014F5F5F4F46175707B7
:107DB000E8F4AA2369F3F999FECF209106013091E6
:107DC000070132BD21BDF89A90B58091C00085FFB2
:107DD000FCCF9093C6002F5F3F4F30930701209355
:107DE00006014F5F5F4F4617570718F38091C00099
:107DF00085FDE5CE8091C00085FFF8CFE0CE81E023
:107E00000E94C73C67CE0E94763C803209F08CCE3F
:107E10008091C00085FFFCCFF092C6008091C00029
:107E200085FFFCCFE092C6008091C00085FFFCCFAB
:107E3000D092C6008091C00085FFFCCFC092C600E2
:107E40008091C00085FFFCCFB092C60043CEE09188
:107E50000601F091070194918091C00085FFFCCF4D
:107E60009093C6009CCF80E10E94C73C33CE0E9415
:107E7000763C0E94763C182F0E94763C112309F430
:107E800083C0113009F484C08FE00E94C73C22CE29
:107E900080910C02816080930C02E5CE80910C02EF
:107EA000816080930C0259CF809107018823880F4D
:107EB000880B8A2180930B02809106019091070123
:107EC000880F991F90930701809306018091080203
:107ED00080FF09C080910802909109020196909359
:107EE000090280930802F894F999FECF1127E091D6
:107EF0000601F0910701C8E0D1E08091080290915D
:107F00000902103091F40091570001700130D9F34B
:107F100003E000935700E89500915700017001308D
:107F2000D9F301E100935700E89509901990009169
:107F3000570001700130D9F301E000935700E89534
:107F40001395103498F011270091570001700130FB
:107F5000D9F305E000935700E895009157000170B0
:107F60000130D9F301E100935700E895329602976A
:107F700009F0C7CF103011F00296E5CF112480919F
:107F8000C00085FFB9CEBCCE8EE10E94C73CA2CD19
:0E7F900085E90E94C73C9ECDF894FFCF80008B
:00000001FF
