:020000040000FA
:100000000C9462000C948A000C948A000C948A0070
:100010000C948A000C948A000C948A000C948A0038
:100020000C948A000C948A000C948A000C948A0028
:100030000C948A000C948A000C948A000C948A0018
:100040000C94B4030C948A000C9482030C945C030B
:100050000C948A000C948A000C948A000C948A00F8
:100060000C948A000C948A000000000024002700F1
:100070002A0000000000250028002B0000000000DE
:1000800023002600290004040404040404040202DA
:100090000202020203030303030301020408102007
:1000A0004080010204081020010204081020000012
:1000B0000008000201000003040700000000000027
:1000C0000000C60611241FBECFEFD8E0DEBFCDBFB3
:1000D00021E0A6E3B1E001C01D92A83EB207E1F71E
:1000E00011E0A0E0B1E0E6E8F2E102C005900D9277
:1000F000A633B107D9F710E0C2E6D0E004C02197DB
:10010000FE010E944007C136D107C9F70E94FE03D5
:100110000C9441090C940000AF92BF92CF92DF92F1
:10012000EF92FF920F931F93CF93DF936C017B01AC
:100130008B01040F151FEB015E01AE18BF08C0173D
:10014000D10759F06991D601ED91FC910190F081B0
:10015000E02DC6010995892B79F7C501DF91CF9173
:100160001F910F91FF90EF90DF90CF90BF90AF90D5
:100170000895FC01538D448D252F30E0842F90E0AD
:10018000821B930B541710F0CF9608950197089592
:10019000FC01918D828D981761F0A28DAE0FBF2F5B
:1001A000B11D5D968C91928D9F5F9F73928F90E0B1
:1001B00008958FEF9FEF08952FB7F8948091430132
:1001C00090914401A0914501B09146012FBF8093C9
:1001D0004F0190935001A0935101B093520187E4D5
:1001E00091E00E94C80097FF26C02FB7F894809135
:1001F000430190914401A0914501B09146012FBF68
:1002000040914F0150915001609151017091520104
:10021000841B950BA60BB70B40914B0150914C01E1
:1002200060914D0170914E0184179507A607B7079D
:10023000B0F28FEF9FEF0895FC01918D828D98179A
:1002400031F0828DE80FF11D858D90E008958FEFDC
:100250009FEF0895FC01918D228D892F90E0805CA5
:100260009F4F821B91098F739927089587E491E02E
:100270000E942A0121E0892B09F420E0822F0895B1
:1002800080E090E0892B29F00E94360181110C94C6
:1002900000000895FC01A48DA80FB92FB11DA35A29
:1002A000BF4F2C91848D90E001968F739927848F96
:1002B000A689B7892C93A089B1898C9183708064B9
:1002C0008C93938D848D981306C00288F389E02D5A
:1002D00080818F7D80830895EF92FF920F931F930B
:1002E000CF93DF93EC0181E0888F9B8D8C8D9813E9
:1002F0001AC0E889F989808185FF15C09FB7F894F5
:10030000EE89FF896083E889F98980818370806440
:1003100080839FBF81E090E0DF91CF911F910F918B
:10032000FF90EF900895F62E0B8D10E00F5F1F4F9A
:100330000F731127E02E8C8D8E110CC00FB607FCA9
:10034000FACFE889F989808185FFF5CFCE010E9437
:100350004A01F1CFEB8DEC0FFD2FF11DE35AFF4F5A
:10036000F0829FB7F8940B8FEA89FB8980818062C5
:10037000CFCFCF93DF93EC01888D8823B9F0AA8982
:10038000BB89E889F9898C9185FD03C0808186FD50
:100390000DC00FB607FCF7CF8C9185FFF2CF80819F
:1003A00085FFEDCFCE010E944A01E9CFDF91CF91C9
:1003B0000895833081F028F4813099F08230A9F0DB
:1003C00008958730A9F08830C9F08430B1F4809165
:1003D00080008F7D03C0809180008F7780938000A4
:1003E000089584B58F7784BD089584B58F7DFBCF44
:1003F0008091B0008F778093B00008958091B00015
:100400008F7DF9CFCF93DF93282F30E0F901E255AC
:10041000FF4F8491F901E656FF4FD491F901EA5755
:10042000FF4FC491CC23A1F081110E94D901EC2F80
:10043000F0E0EE0FFF1FE458FF4FA591B491EC914F
:10044000ED2381E090E009F480E0DF91CF91089501
:1004500080E090E0FACF1F93CF93DF93282F30E016
:10046000F901E255FF4F8491F901E656FF4FD4910F
:10047000F901EA57FF4FC491CC23A9F0162F81113F
:100480000E94D901EC2FF0E0EE0FFF1FEE58FF4F56
:10049000A591B4918FB7F894EC91111108C0D09543
:1004A000DE23DC938FBFDF91CF911F910895DE2B68
:1004B000F8CFCF93DF9390E0FC01E656FF4F2491F5
:1004C0008A579F4FFC0184918823C9F090E0880FE0
:1004D000991FFC01E859FF4FA591B491FC01EE581A
:1004E000FF4FC591D49161110DC09FB7F8948C91C5
:1004F000209582238C938881282328839FBFDF91B6
:10050000CF910895623051F49FB7F8943C91822FB7
:10051000809583238C93E8812E2BEFCF8FB7F894AF
:10052000EC912E2B2C938FBFEACF3FB7F89480919C
:10053000370190913801A0913901B0913A0126B567
:10054000A89B05C02F3F19F00196A11DB11D3FBF0B
:10055000BA2FA92F982F8827BC01CD01620F711DDA
:10056000811D911D42E0660F771F881F991F4A95D4
:10057000D1F708958F929F92AF92BF92CF92DF9260
:10058000EF92FF924B015C010E9495026B017C018E
:100590000E9495026C197D098E099F09683E73407F
:1005A00081059105A8F321E0821A9108A108B108FC
:1005B00088EEC80E83E0D81EE11CF11C8114910462
:1005C000A104B10429F7FF90EF90DF90CF90BF9086
:1005D000AF909F908F9008950F931F93CF93DF93C9
:1005E0008C01D0E0C0E061E086E00E942B0264EF65
:1005F00071E080E090E00E94BA0260E086E00E9434
:100600002B0264EF71E080E090E00E94BA02219634
:100610000C171D0741F7DF91CF911F910F9108959E
:10062000CF93DF93EC0190E080E08C179D07BCF442
:1006300061E085E00E942B0264EF71E080E090E0D1
:100640000E94BA0260E085E00E942B0264EF71E034
:1006500080E090E00E94BA0281E090E0E6CFDF9176
:10066000CF9108950F931F93CF93DF93EC0188816F
:100670009981009759F02A813B812617370730F07E
:1006800081E0DF91CF911F910F9108958B016F5FF2
:100690007F4F0E946B08009759F0998388831B83D2
:1006A0000A832C813D81232B59F7FC011082E8CF6E
:1006B00080E0E7CF0C94FB061F920F920FB60F92CB
:1006C00011242F933F934F935F936F937F938F9357
:1006D0009F93AF93BF93EF93FF9387E491E00E94C2
:1006E0004A01FF91EF91BF91AF919F918F917F91BF
:1006F0006F915F914F913F912F910F900FBE0F908F
:100700001F9018951F920F920FB60F9211242F93DE
:100710008F939F93EF93FF93E0915701F0915801CE
:100720008081E0915D01F0915E0182FD1BC09081AE
:10073000809160018F5F8F7320916101821741F07A
:10074000E0916001F0E0E95BFE4F958F80936001DE
:10075000FF91EF919F918F912F910F900FBE0F906E
:100760001F9018958081F4CF1F920F920FB60F92B1
:1007700011242F933F938F939F93AF93BF938091B7
:10078000430190914401A0914501B09146013091FF
:10079000360123E0230F2D3758F50196A11DB11D19
:1007A000209336018093430190934401A093450127
:1007B000B09346018091370190913801A0913901A1
:1007C000B0913A010196A11DB11D8093370190931C
:1007D0003801A0933901B0933A01BF91AF919F9135
:1007E0008F913F912F910F900FBE0F901F901895F2
:1007F00026E8230F0296A11DB11DD2CFCF93DF9320
:10080000CDB7DEB728970FB6F894DEBF0FBECDBFC9
:10081000789484B5826084BD84B5816084BD85B5DB
:10082000826085BD85B5816085BD80916E008160E7
:1008300080936E001092810080918100826080938D
:10084000810080918100816080938100809180008F
:100850008160809380008091B10084608093B100BA
:100860008091B00081608093B00080917A008460B4
:1008700080937A0080917A00826080937A008091E0
:100880007A00816080937A0080917A0080688093FA
:100890007A001092C100E0915701F091580112E0E6
:1008A0001083E0915301F09154011082E0915501C1
:1008B000F091560180E1808310925F01E0915B012D
:1008C000F0915C0186E08083E0915901F0915A013A
:1008D000808180618083E0915901F0915A0180818B
:1008E00088608083E0915901F0915A01808180688D
:1008F0008083E0915901F0915A0180818F7D80833E
:1009000062E083E00E94590262E084E00E945902A2
:1009100061E085E00E94590261E086E00E94590290
:1009200062E087E00E94590261E088E00E9459027B
:1009300060E089E00E94590261E08AE00E94590269
:1009400081E090E00E94F306813089F162E090E05E
:1009500080E00E945A0361E082E090E00E945A0326
:1009600060E083E090E00E945A0361E081E090E063
:100970000E945A0310933C0181E080933B01109246
:100980003D0160EA7FE080E090E00E94BA02809141
:100990003C0190913D019130F9F0923091F183301A
:1009A000D8F5813008F49DC081E090E09CC090E0D3
:1009B00080E00E94F30680933C0183E090E00E9477
:1009C000F30680933D0182E090E00E94F3068111DE
:1009D000D8CF10923B01D5CF833009F761E08AE090
:1009E0000E942B026AEF70E080E090E00E94BA0261
:1009F00060E08AE00E942B0290E080E00E941003F9
:100A000010C0833061F661E08AE00E942B026CE145
:100A10007CE080E090E0EACF833071F3843009F429
:100A20005DC080913B0181110EC061E088E00E94B1
:100A30002B026AEF70E080E090E00E94BA0260E072
:100A400088E00E942B0201E080E0C82E80E0D82ED2
:100A500011E092E0B92E87E491E00E942A01892BEF
:100A600009F478C01A8219821C821B821E821D82A0
:100A700070E060E0CE0101960E94320329813A8144
:100A8000811134C02115310519F0C9010E94E20716
:100A90001A8219821E821D821C821B820E94DC0027
:100AA000ED80FE8097FD2AC08F8318862FEFE21A13
:100AB000F20AB701CE0101960E943203882371F336
:100AC00029813A818D819E81BE01695F7F4F820FAE
:100AD000931F0E943A09FE82ED82E0CF81E090E010
:100AE0008DCF83E090E00E94EC029BCF1E821D829E
:100AF00064E371E0C9010E943A09D0CF89819A81EB
:100B000033E0E316F10430F022E030E03E832D8341
:100B1000FC0112822D813E81232BB1F06BE171E04B
:100B20000E943109892B81F443E150E06EE171E0CC
:100B300087E491E00E948C0042E050E062E371E0C3
:100B400087E491E00E948C0089819A81009711F0DE
:100B50000E94E20784E00E940202019759F483E0B8
:100B60000E940202019731F480910201811102C0BA
:100B70001093020187E00E940202019731F48091F4
:100B80000101811102C01093010189E00E9402025B
:100B9000892B91F580914201882371F11093000116
:100BA000109242012FB7F894809143019091440133
:100BB000A0914501B09146012FBF40913E01509157
:100BC0003F016091400170914101841B950BA60B80
:100BD000B70B20913D01843CF9E09F07A105B105C9
:100BE00008F095C021119DC010933D0160913D0119
:100BF00083E090E00E945A0383E00E940202892B66
:100C000001F5809102018823E1F080913C0184305C
:100C100008F48AC084E080933C01F0903C0133E00A
:100C2000F31208C080913D01813009F47FC0823009
:100C300009F48BC06F2D90E080E00E945A0310925F
:100C4000020184E00E940202892BF9F480910201E2
:100C50008823D9F080913C01882319F0815080933A
:100C60003C01F0903C0183E0F81208C080913D0106
:100C7000813009F473C0823009F47FC06F2D90E099
:100C800080E00E945A031092020187E00E94020253
:100C9000892B79F480910101882359F060913B01FF
:100CA000602760933B0182E090E00E945A0310921B
:100CB000010189E00E9402020197E9F4809100019C
:100CC0008823C9F080914201811113C02FB7F89495
:100CD0008091430190914401A0914501B09146015A
:100CE0002FBF80933E0190933F01A0934001B093AA
:100CF000410110934201C114D10409F4ACCE0E9409
:100D00003601882309F4A7CE0E940000A4CE211149
:100D100002C0B0923D0188329342A105B10508F4AA
:100D200065CF10923D0162CF8F5F75CF61E08AE0A1
:100D30000E942B026AEF70E080E090E00E94BA020D
:100D400060E08AE00E942B0275CF61E08AE00E9499
:100D50002B026CE17CE080E090E0F0CF61E08AE083
:100D60000E942B026AEF70E080E090E00E94BA02DD
:100D700060E08AE00E942B0281CF61E08AE00E945D
:100D80002B026CE17CE080E090E0F0CFE7E4F1E062
:100D90001382128288EE93E0A0E0B0E08483958312
:100DA000A683B7838DE091E09183808385EC90E00A
:100DB0009587848784EC90E09787868780EC90E025
:100DC000918B808B81EC90E0938B828B82EC90E016
:100DD000958B848B86EC90E0978B868B118E128E90
:100DE000138E148E0895F999FECF92BD81BDF89AA5
:100DF000992780B50895262FF999FECF1FBA92BD85
:100E000081BD20BD0FB6F894FA9AF99A0FBE0196EB
:100E100008952F923F924F925F926F927F928F929E
:100E20009F92AF92BF92CF92DF92EF92FF920F9379
:100E30001F93CF93DF93CDB7DEB7CA1BDB0B0FB683
:100E4000F894DEBF0FBECDBF09942A883988488840
:100E50005F846E847D848C849B84AA84B984C884D6
:100E6000DF80EE80FD800C811B81AA81B981CE0FCD
:100E7000D11D0FB6F894DEBF0FBECDBFED010895B2
:100E8000EE0FFF1F0590F491E02D09940F931F932F
:100E9000CF93DF938230910510F482E090E0E091EF
:100EA000E601F091E70130E020E0B0E0A0E030970B
:100EB00099F42115310509F44AC0281B390B243057
:100EC0003105D8F58A819B816115710589F1FB0196
:100ED00093838283FE0111C040815181028113817D
:100EE00048175907E0F04817590799F4109761F02F
:100EF00012960C93129713961C933296CF01DF91A2
:100F0000CF911F910F9108950093E6011093E7018F
:100F1000F4CF2115310551F04217530738F0A901DC
:100F2000DB019A01BD01DF01F801C1CFEF01F9CF6B
:100F30009093E7018093E601CDCFFE01E20FF31F0E
:100F4000819391932250310939832883D7CF2091FF
:100F5000E4013091E501232B41F42091050130910A
:100F600006013093E5012093E401209103013091C3
:100F700004012115310541F42DB73EB74091070119
:100F800050910801241B350BE091E401F091E5013B
:100F9000E217F307A0F42E1B3F0B2817390778F050
:100FA000AC014E5F5F4F2417350748F04E0F5F1FAF
:100FB0005093E5014093E401819391939FCFF0E03A
:100FC000E0E09CCFCF93DF930097E9F0FC013297EC
:100FD00013821282A091E601B091E701ED0130E0A9
:100FE00020E01097A1F420813181820F931F20917E
:100FF000E4013091E5012817390709F061C0F09349
:10100000E501E093E401DF91CF910895EA01CE1765
:10101000DF07E8F54A815B819E0141155105B1F773
:10102000E901FB83EA8349915991C40FD51FEC175D
:10103000FD0761F4808191810296840F951FE9017B
:1010400099838883828193819B838A83F0E0E0E0A7
:1010500012968D919C9113970097B9F52D913C9123
:101060001197CD010296820F931F2091E4013091D8
:10107000E5012817390739F6309751F51092E70145
:101080001092E601B093E501A093E401BCCFD383B5
:10109000C28340815181840F951FC817D90761F41D
:1010A0004E5F5F4F88819981480F591F518340835C
:1010B0008A819B81938382832115310509F0B0CF0A
:1010C000F093E701E093E6019ECFFD01DC01C0CF84
:1010D00013821282D7CFB0E0A0E0E1E7F8E00C94F1
:1010E0000B078C01009751F4CB010E9446078C013D
:1010F000C801CDB7DEB7E0E10C942707FC01E60F8D
:10110000F71F9C0122503109E217F30708F49DC034
:10111000D901CD91DC911197C617D70798F0C5304A
:10112000D10530F3CE0104978617970708F3C61B45
:10113000D70B2297C193D1936D937C93CF010E94DB
:10114000E207D6CF5B01AC1ABD0A4C018C0E9D1E86
:10115000A091E601B091E701512C412CF12CE12C3A
:10116000109731F58091E4019091E501881599057A
:1011700009F05CC04616570608F058C0809103017C
:1011800090910401009741F48DB79EB740910701FB
:1011900050910801841B950BE817F90708F055C01A
:1011A000F093E501E093E401F90171836083A0CF3E
:1011B0008D919C91119712966C90129713967C903A
:1011C0001397A815B90559F56C0142E0C40ED11C5E
:1011D000CA14DB0420F1AC014A195B09DA0112964A
:1011E000159780F06282738251834083D9016D9399
:1011F0007C93E114F10471F0D7011396FC93EE9304
:10120000129776CF22968C0F9D1FF90191838083D0
:10121000F301EFCFF093E701E093E60169CF4816C1
:10122000590608F42C017D01D3019ACFCB010E940D
:1012300046077C01009749F0AE01B8010E942809D9
:10124000C8010E94E207870153CF10E000E050CFB1
:10125000FB01DC0102C001900D9241505040D8F7D3
:101260000895FB01DC018D91019080190110D9F3E3
:10127000990B0895FB01DC0101900D920020E1F72C
:101280000895F894FFCF0101010000E801800000FB
:101290000000006C018C00B900B9012A01C8001CD3
:1012A000016964006B73646D332D6176722D737008
:0C12B0006F7274706C7573000D0A000002
:107800000C94343C0C94513C0C94513C0C94513CE1
:107810000C94513C0C94513C0C94513C0C94513CB4
:107820000C94513C0C94513C0C94513C0C94513CA4
:107830000C94513C0C94513C0C94513C0C94513C94
:107840000C94513C0C94513C0C94513C0C94513C84
:107850000C94513C0C94513C0C94513C0C94513C74
:107860000C94513C0C94513C11241FBECFEFD8E036
:10787000DEBFCDBF11E0A0E0B1E0ECE9FFE702C060
:1078800005900D92A230B107D9F712E0A2E0B1E065
:1078900001C01D92AD30B107E1F70E942D3D0C945F
:1078A000CC3F0C94003C982F959595959595959582
:1078B000905D8F708A307CF0282F295A8091C0000B
:1078C00085FFFCCF9093C6008091C00085FFFCCF60
:1078D0002093C6000895282F205DF0CF982F809127
:1078E000C00085FFFCCF9093C6000895EF92FF92F1
:1078F0000F931F93EE24FF2487018091C00087FD22
:1079000017C00894E11CF11C011D111D81E4E8164B
:1079100082E4F8068FE0080780E0180770F3E09132
:107920000401F091050109958091C00087FFE9CF1E
:107930008091C6001F910F91FF90EF9008950E94D3
:10794000763C982F8091C00085FFFCCF9093C600B5
:1079500091362CF490330CF09053892F089597555D
:10796000892F08951F930E949F3C182F0E949F3CCF
:107970001295107F810F1F9108951F93182F882350
:1079800021F00E94763C1150E1F71F9108951F935A
:10799000182F0E94763C803249F0809103018F5F5E
:1079A000809303018530C1F01F9108958091C0003C
:1079B00085FFFCCF84E18093C6008091C00085FFE5
:1079C000FCCF1093C6008091C00085FFFCCF80E102
:1079D0008093C6001F910895E0910401F091050184
:1079E00009951F9108950E94763C803241F0809164
:1079F00003018F5F80930301853081F008958091AA
:107A0000C00085FFFCCF84E18093C6008091C00058
:107A100085FFFCCF80E18093C6000895E0910401CA
:107A2000F09105010995089540E951E08823A1F0FE
:107A30002D9A28EE33E0FA013197F1F721503040CA
:107A4000D1F72D9828EE33E0FA013197F1F7215064
:107A50003040D1F7815061F708953F924F925F9285
:107A60006F927F928F929F92AF92BF92CF92DF924E
:107A7000EF92FF920F931F93CF93DF93000080E16B
:107A80008093C4001092C50088E18093C10086E015
:107A90008093C2005098589A259A81E00E94143D24
:107AA00024E1F22E9EE1E92E85E9D82E0FE0C02ECA
:107AB00010E1B12EAA24A394B1E49B2EA6E58A2E50
:107AC000F2E57F2EE0E26E2E79E4572E63E5462E36
:107AD00050E5352E0E94763C8033B1F18133B9F107
:107AE000803409F46FC0813409F476C0823409F41B
:107AF00085C0853409F488C0803531F1823521F1A3
:107B0000813511F1853509F485C0863509F48DC0BC
:107B1000843609F496C0843709F403C1853709F423
:107B200072C1863709F466C0809103018F5F80932C
:107B30000301853079F6E0910401F0910501099582
:107B40000E94763C803351F60E94F33CC3CF0E94E2
:107B5000763C803249F78091C00085FFFCCFF092DF
:107B6000C6008091C00085FFFCCF9092C600809136
:107B7000C00085FFFCCF8092C6008091C00085FFC9
:107B8000FCCF7092C6008091C00085FFFCCF609250
:107B9000C6008091C00085FFFCCF5092C600809146
:107BA000C00085FFFCCF4092C6008091C00085FFD9
:107BB000FCCF3092C6008091C00085FFFCCFB09210
:107BC000C60088CF0E94763C863808F4BDCF0E945C
:107BD000763C0E94F33C7ECF0E94763C803809F4CC
:107BE0009CC0813809F40BC1823809F43CC1883942
:107BF00009F48FC080E00E94C73C6CCF84E10E94F2
:107C0000BD3C0E94F33C66CF85E00E94BD3C0E94D3
:107C1000F33C60CF0E94763C809306010E94763C44
:107C2000809307010E94F33C55CF0E94763C80333D
:107C300009F41DC183E00E94BD3C80E00E94C73C66
:107C400049CF0E94763C809309020E94763C809343
:107C5000080280910C028E7F80930C020E94763C79
:107C6000853409F415C18091080290910902892B8D
:107C700089F000E010E00E94763CF801E85FFE4FDA
:107C800080830F5F1F4F80910802909109020817AF
:107C9000190788F30E94763C803209F045CF809125
:107CA0000C0280FF01C16091060170910701660F0F
:107CB000771F7093070160930601A0910802B091AD
:107CC00009021097C9F0E8E0F1E09B01AD014E0F09
:107CD0005F1FF999FECF32BD21BD819180BDFA9A17
:107CE000F99A2F5F3F4FE417F50799F76A0F7B1F4B
:107CF00070930701609306018091C00085FFFCCF5F
:107D0000F092C6008091C00085FFFCCFB092C60003
:107D1000E1CE83E00E94C73CDDCE82E00E94C73CFA
:107D2000D9CE0E94763C809309020E94763C8093D3
:107D300008028091060190910701880F991F909386
:107D40000701809306010E94763C853409F4A6C0A1
:107D500080910C028E7F80930C020E94763C8032D0
:107D600009F0B8CE8091C00085FFFCCFF092C6002C
:107D7000609108027091090261157105B9F140E046
:107D800050E080910C02A82FA170B82FB27011C0E2
:107D9000BB2309F45CC0E0910601F0910701319624
:107DA000F0930701E09306014F5F5F4F46175707B7
:107DB000E8F4AA2369F3F999FECF209106013091E6
:107DC000070132BD21BDF89A90B58091C00085FFB2
:107DD000FCCF9093C6002F5F3F4F30930701209355
:107DE00006014F5F5F4F4617570718F38091C00099
:107DF00085FDE5CE8091C00085FFF8CFE0CE81E023
:107E00000E94C73C67CE0E94763C803209F08CCE3F
:107E10008091C00085FFFCCFF092C6008091C00029
:107E200085FFFCCFE092C6008091C00085FFFCCFAB
:107E3000D092C6008091C00085FFFCCFC092C600E2
:107E40008091C00085FFFCCFB092C60043CEE09188
:107E50000601F091070194918091C00085FFFCCF4D
:107E60009093C6009CCF80E10E94C73C33CE0E9415
:107E7000763C0E94763C182F0E94763C112309F430
:107E800083C0113009F484C08FE00E94C73C22CE29
:107E900080910C02816080930C02E5CE80910C02EF
:107EA000816080930C0259CF809107018823880F4D
:107EB000880B8A2180930B02809106019091070123
:107EC000880F991F90930701809306018091080203
:107ED00080FF09C080910802909109020196909359
:107EE000090280930802F894F999FECF1127E091D6
:107EF0000601F0910701C8E0D1E08091080290915D
:107F00000902103091F40091570001700130D9F34B
:107F100003E000935700E89500915700017001308D
:107F2000D9F301E100935700E89509901990009169
:107F3000570001700130D9F301E000935700E89534
:107F40001395103498F011270091570001700130FB
:107F5000D9F305E000935700E895009157000170B0
:107F60000130D9F301E100935700E895329602976A
:107F700009F0C7CF103011F00296E5CF112480919F
:107F8000C00085FFB9CEBCCE8EE10E94C73CA2CD19
:0E7F900085E90E94C73C9ECDF894FFCF80008B
:00000001FF
